{
  "contractName": "IBCHandler",
  "abi": [
    {
      "inputs": [
        {
          "internalType": "contract IBCHost",
          "name": "host_",
          "type": "address"
        }
      ],
      "stateMutability": "nonpayable",
      "type": "constructor"
    },
    {
      "anonymous": false,
      "inputs": [
        {
          "components": [
            {
              "internalType": "uint64",
              "name": "sequence",
              "type": "uint64"
            },
            {
              "internalType": "string",
              "name": "source_port",
              "type": "string"
            },
            {
              "internalType": "string",
              "name": "source_channel",
              "type": "string"
            },
            {
              "internalType": "string",
              "name": "destination_port",
              "type": "string"
            },
            {
              "internalType": "string",
              "name": "destination_channel",
              "type": "string"
            },
            {
              "internalType": "bytes",
              "name": "data",
              "type": "bytes"
            },
            {
              "components": [
                {
                  "internalType": "uint64",
                  "name": "revision_number",
                  "type": "uint64"
                },
                {
                  "internalType": "uint64",
                  "name": "revision_height",
                  "type": "uint64"
                }
              ],
              "internalType": "struct Height.Data",
              "name": "timeout_height",
              "type": "tuple"
            },
            {
              "internalType": "uint64",
              "name": "timeout_timestamp",
              "type": "uint64"
            }
          ],
          "indexed": false,
          "internalType": "struct Packet.Data",
          "name": "packet",
          "type": "tuple"
        },
        {
          "indexed": false,
          "internalType": "bytes",
          "name": "acknowledgement",
          "type": "bytes"
        }
      ],
      "name": "AcknowledgePacket",
      "type": "event"
    },
    {
      "anonymous": false,
      "inputs": [
        {
          "components": [
            {
              "internalType": "uint64",
              "name": "sequence",
              "type": "uint64"
            },
            {
              "internalType": "string",
              "name": "source_port",
              "type": "string"
            },
            {
              "internalType": "string",
              "name": "source_channel",
              "type": "string"
            },
            {
              "internalType": "string",
              "name": "destination_port",
              "type": "string"
            },
            {
              "internalType": "string",
              "name": "destination_channel",
              "type": "string"
            },
            {
              "internalType": "bytes",
              "name": "data",
              "type": "bytes"
            },
            {
              "components": [
                {
                  "internalType": "uint64",
                  "name": "revision_number",
                  "type": "uint64"
                },
                {
                  "internalType": "uint64",
                  "name": "revision_height",
                  "type": "uint64"
                }
              ],
              "internalType": "struct Height.Data",
              "name": "timeout_height",
              "type": "tuple"
            },
            {
              "internalType": "uint64",
              "name": "timeout_timestamp",
              "type": "uint64"
            }
          ],
          "indexed": false,
          "internalType": "struct Packet.Data",
          "name": "packet",
          "type": "tuple"
        }
      ],
      "name": "RecvPacket",
      "type": "event"
    },
    {
      "anonymous": false,
      "inputs": [
        {
          "components": [
            {
              "internalType": "uint64",
              "name": "sequence",
              "type": "uint64"
            },
            {
              "internalType": "string",
              "name": "source_port",
              "type": "string"
            },
            {
              "internalType": "string",
              "name": "source_channel",
              "type": "string"
            },
            {
              "internalType": "string",
              "name": "destination_port",
              "type": "string"
            },
            {
              "internalType": "string",
              "name": "destination_channel",
              "type": "string"
            },
            {
              "internalType": "bytes",
              "name": "data",
              "type": "bytes"
            },
            {
              "components": [
                {
                  "internalType": "uint64",
                  "name": "revision_number",
                  "type": "uint64"
                },
                {
                  "internalType": "uint64",
                  "name": "revision_height",
                  "type": "uint64"
                }
              ],
              "internalType": "struct Height.Data",
              "name": "timeout_height",
              "type": "tuple"
            },
            {
              "internalType": "uint64",
              "name": "timeout_timestamp",
              "type": "uint64"
            }
          ],
          "indexed": false,
          "internalType": "struct Packet.Data",
          "name": "packet",
          "type": "tuple"
        }
      ],
      "name": "SendPacket",
      "type": "event"
    },
    {
      "anonymous": false,
      "inputs": [
        {
          "indexed": false,
          "internalType": "string",
          "name": "destinationPortId",
          "type": "string"
        },
        {
          "indexed": false,
          "internalType": "string",
          "name": "destinationChannel",
          "type": "string"
        },
        {
          "indexed": false,
          "internalType": "uint64",
          "name": "sequence",
          "type": "uint64"
        },
        {
          "indexed": false,
          "internalType": "bytes",
          "name": "acknowledgement",
          "type": "bytes"
        }
      ],
      "name": "WriteAcknowledgement",
      "type": "event"
    },
    {
      "inputs": [],
      "name": "getHostAddress",
      "outputs": [
        {
          "internalType": "address",
          "name": "",
          "type": "address"
        }
      ],
      "stateMutability": "view",
      "type": "function",
      "constant": true
    },
    {
      "inputs": [
        {
          "internalType": "string",
          "name": "clientType",
          "type": "string"
        },
        {
          "internalType": "contract IClient",
          "name": "client",
          "type": "address"
        }
      ],
      "name": "registerClient",
      "outputs": [],
      "stateMutability": "nonpayable",
      "type": "function"
    },
    {
      "inputs": [
        {
          "components": [
            {
              "internalType": "string",
              "name": "clientType",
              "type": "string"
            },
            {
              "internalType": "uint64",
              "name": "height",
              "type": "uint64"
            },
            {
              "internalType": "bytes",
              "name": "clientStateBytes",
              "type": "bytes"
            },
            {
              "internalType": "bytes",
              "name": "consensusStateBytes",
              "type": "bytes"
            }
          ],
          "internalType": "struct IBCMsgs.MsgCreateClient",
          "name": "msg_",
          "type": "tuple"
        }
      ],
      "name": "createClient",
      "outputs": [],
      "stateMutability": "nonpayable",
      "type": "function"
    },
    {
      "inputs": [
        {
          "components": [
            {
              "internalType": "string",
              "name": "clientId",
              "type": "string"
            },
            {
              "internalType": "bytes",
              "name": "header",
              "type": "bytes"
            }
          ],
          "internalType": "struct IBCMsgs.MsgUpdateClient",
          "name": "msg_",
          "type": "tuple"
        }
      ],
      "name": "updateClient",
      "outputs": [],
      "stateMutability": "nonpayable",
      "type": "function"
    },
    {
      "inputs": [
        {
          "components": [
            {
              "internalType": "string",
              "name": "clientId",
              "type": "string"
            },
            {
              "components": [
                {
                  "internalType": "string",
                  "name": "client_id",
                  "type": "string"
                },
                {
                  "internalType": "string",
                  "name": "connection_id",
                  "type": "string"
                },
                {
                  "components": [
                    {
                      "internalType": "bytes",
                      "name": "key_prefix",
                      "type": "bytes"
                    }
                  ],
                  "internalType": "struct MerklePrefix.Data",
                  "name": "prefix",
                  "type": "tuple"
                }
              ],
              "internalType": "struct Counterparty.Data",
              "name": "counterparty",
              "type": "tuple"
            },
            {
              "internalType": "uint64",
              "name": "delayPeriod",
              "type": "uint64"
            }
          ],
          "internalType": "struct IBCMsgs.MsgConnectionOpenInit",
          "name": "msg_",
          "type": "tuple"
        }
      ],
      "name": "connectionOpenInit",
      "outputs": [
        {
          "internalType": "string",
          "name": "",
          "type": "string"
        }
      ],
      "stateMutability": "nonpayable",
      "type": "function"
    },
    {
      "inputs": [
        {
          "components": [
            {
              "internalType": "string",
              "name": "previousConnectionId",
              "type": "string"
            },
            {
              "components": [
                {
                  "internalType": "string",
                  "name": "client_id",
                  "type": "string"
                },
                {
                  "internalType": "string",
                  "name": "connection_id",
                  "type": "string"
                },
                {
                  "components": [
                    {
                      "internalType": "bytes",
                      "name": "key_prefix",
                      "type": "bytes"
                    }
                  ],
                  "internalType": "struct MerklePrefix.Data",
                  "name": "prefix",
                  "type": "tuple"
                }
              ],
              "internalType": "struct Counterparty.Data",
              "name": "counterparty",
              "type": "tuple"
            },
            {
              "internalType": "uint64",
              "name": "delayPeriod",
              "type": "uint64"
            },
            {
              "internalType": "string",
              "name": "clientId",
              "type": "string"
            },
            {
              "internalType": "bytes",
              "name": "clientStateBytes",
              "type": "bytes"
            },
            {
              "components": [
                {
                  "internalType": "string",
                  "name": "identifier",
                  "type": "string"
                },
                {
                  "internalType": "string[]",
                  "name": "features",
                  "type": "string[]"
                }
              ],
              "internalType": "struct Version.Data[]",
              "name": "counterpartyVersions",
              "type": "tuple[]"
            },
            {
              "internalType": "bytes",
              "name": "proofInit",
              "type": "bytes"
            },
            {
              "internalType": "bytes",
              "name": "proofClient",
              "type": "bytes"
            },
            {
              "internalType": "bytes",
              "name": "proofConsensus",
              "type": "bytes"
            },
            {
              "internalType": "uint64",
              "name": "proofHeight",
              "type": "uint64"
            },
            {
              "internalType": "uint64",
              "name": "consensusHeight",
              "type": "uint64"
            }
          ],
          "internalType": "struct IBCMsgs.MsgConnectionOpenTry",
          "name": "msg_",
          "type": "tuple"
        }
      ],
      "name": "connectionOpenTry",
      "outputs": [
        {
          "internalType": "string",
          "name": "",
          "type": "string"
        }
      ],
      "stateMutability": "nonpayable",
      "type": "function"
    },
    {
      "inputs": [
        {
          "components": [
            {
              "internalType": "string",
              "name": "connectionId",
              "type": "string"
            },
            {
              "internalType": "bytes",
              "name": "clientStateBytes",
              "type": "bytes"
            },
            {
              "components": [
                {
                  "internalType": "string",
                  "name": "identifier",
                  "type": "string"
                },
                {
                  "internalType": "string[]",
                  "name": "features",
                  "type": "string[]"
                }
              ],
              "internalType": "struct Version.Data",
              "name": "version",
              "type": "tuple"
            },
            {
              "internalType": "string",
              "name": "counterpartyConnectionID",
              "type": "string"
            },
            {
              "internalType": "bytes",
              "name": "proofTry",
              "type": "bytes"
            },
            {
              "internalType": "bytes",
              "name": "proofClient",
              "type": "bytes"
            },
            {
              "internalType": "bytes",
              "name": "proofConsensus",
              "type": "bytes"
            },
            {
              "internalType": "uint64",
              "name": "proofHeight",
              "type": "uint64"
            },
            {
              "internalType": "uint64",
              "name": "consensusHeight",
              "type": "uint64"
            }
          ],
          "internalType": "struct IBCMsgs.MsgConnectionOpenAck",
          "name": "msg_",
          "type": "tuple"
        }
      ],
      "name": "connectionOpenAck",
      "outputs": [],
      "stateMutability": "nonpayable",
      "type": "function"
    },
    {
      "inputs": [
        {
          "components": [
            {
              "internalType": "string",
              "name": "connectionId",
              "type": "string"
            },
            {
              "internalType": "bytes",
              "name": "proofAck",
              "type": "bytes"
            },
            {
              "internalType": "uint64",
              "name": "proofHeight",
              "type": "uint64"
            }
          ],
          "internalType": "struct IBCMsgs.MsgConnectionOpenConfirm",
          "name": "msg_",
          "type": "tuple"
        }
      ],
      "name": "connectionOpenConfirm",
      "outputs": [],
      "stateMutability": "nonpayable",
      "type": "function"
    },
    {
      "inputs": [
        {
          "components": [
            {
              "internalType": "string",
              "name": "portId",
              "type": "string"
            },
            {
              "components": [
                {
                  "internalType": "enum Channel.State",
                  "name": "state",
                  "type": "uint8"
                },
                {
                  "internalType": "enum Channel.Order",
                  "name": "ordering",
                  "type": "uint8"
                },
                {
                  "components": [
                    {
                      "internalType": "string",
                      "name": "port_id",
                      "type": "string"
                    },
                    {
                      "internalType": "string",
                      "name": "channel_id",
                      "type": "string"
                    }
                  ],
                  "internalType": "struct ChannelCounterparty.Data",
                  "name": "counterparty",
                  "type": "tuple"
                },
                {
                  "internalType": "string[]",
                  "name": "connection_hops",
                  "type": "string[]"
                },
                {
                  "internalType": "string",
                  "name": "version",
                  "type": "string"
                }
              ],
              "internalType": "struct Channel.Data",
              "name": "channel",
              "type": "tuple"
            }
          ],
          "internalType": "struct IBCMsgs.MsgChannelOpenInit",
          "name": "msg_",
          "type": "tuple"
        }
      ],
      "name": "channelOpenInit",
      "outputs": [
        {
          "internalType": "string",
          "name": "",
          "type": "string"
        }
      ],
      "stateMutability": "nonpayable",
      "type": "function"
    },
    {
      "inputs": [
        {
          "components": [
            {
              "internalType": "string",
              "name": "portId",
              "type": "string"
            },
            {
              "internalType": "string",
              "name": "previousChannelId",
              "type": "string"
            },
            {
              "components": [
                {
                  "internalType": "enum Channel.State",
                  "name": "state",
                  "type": "uint8"
                },
                {
                  "internalType": "enum Channel.Order",
                  "name": "ordering",
                  "type": "uint8"
                },
                {
                  "components": [
                    {
                      "internalType": "string",
                      "name": "port_id",
                      "type": "string"
                    },
                    {
                      "internalType": "string",
                      "name": "channel_id",
                      "type": "string"
                    }
                  ],
                  "internalType": "struct ChannelCounterparty.Data",
                  "name": "counterparty",
                  "type": "tuple"
                },
                {
                  "internalType": "string[]",
                  "name": "connection_hops",
                  "type": "string[]"
                },
                {
                  "internalType": "string",
                  "name": "version",
                  "type": "string"
                }
              ],
              "internalType": "struct Channel.Data",
              "name": "channel",
              "type": "tuple"
            },
            {
              "internalType": "string",
              "name": "counterpartyVersion",
              "type": "string"
            },
            {
              "internalType": "bytes",
              "name": "proofInit",
              "type": "bytes"
            },
            {
              "internalType": "uint64",
              "name": "proofHeight",
              "type": "uint64"
            }
          ],
          "internalType": "struct IBCMsgs.MsgChannelOpenTry",
          "name": "msg_",
          "type": "tuple"
        }
      ],
      "name": "channelOpenTry",
      "outputs": [
        {
          "internalType": "string",
          "name": "",
          "type": "string"
        }
      ],
      "stateMutability": "nonpayable",
      "type": "function"
    },
    {
      "inputs": [
        {
          "components": [
            {
              "internalType": "string",
              "name": "portId",
              "type": "string"
            },
            {
              "internalType": "string",
              "name": "channelId",
              "type": "string"
            },
            {
              "internalType": "string",
              "name": "counterpartyVersion",
              "type": "string"
            },
            {
              "internalType": "string",
              "name": "counterpartyChannelId",
              "type": "string"
            },
            {
              "internalType": "bytes",
              "name": "proofTry",
              "type": "bytes"
            },
            {
              "internalType": "uint64",
              "name": "proofHeight",
              "type": "uint64"
            }
          ],
          "internalType": "struct IBCMsgs.MsgChannelOpenAck",
          "name": "msg_",
          "type": "tuple"
        }
      ],
      "name": "channelOpenAck",
      "outputs": [],
      "stateMutability": "nonpayable",
      "type": "function"
    },
    {
      "inputs": [
        {
          "components": [
            {
              "internalType": "string",
              "name": "portId",
              "type": "string"
            },
            {
              "internalType": "string",
              "name": "channelId",
              "type": "string"
            },
            {
              "internalType": "bytes",
              "name": "proofAck",
              "type": "bytes"
            },
            {
              "internalType": "uint64",
              "name": "proofHeight",
              "type": "uint64"
            }
          ],
          "internalType": "struct IBCMsgs.MsgChannelOpenConfirm",
          "name": "msg_",
          "type": "tuple"
        }
      ],
      "name": "channelOpenConfirm",
      "outputs": [],
      "stateMutability": "nonpayable",
      "type": "function"
    },
    {
      "inputs": [
        {
          "components": [
            {
              "internalType": "uint64",
              "name": "sequence",
              "type": "uint64"
            },
            {
              "internalType": "string",
              "name": "source_port",
              "type": "string"
            },
            {
              "internalType": "string",
              "name": "source_channel",
              "type": "string"
            },
            {
              "internalType": "string",
              "name": "destination_port",
              "type": "string"
            },
            {
              "internalType": "string",
              "name": "destination_channel",
              "type": "string"
            },
            {
              "internalType": "bytes",
              "name": "data",
              "type": "bytes"
            },
            {
              "components": [
                {
                  "internalType": "uint64",
                  "name": "revision_number",
                  "type": "uint64"
                },
                {
                  "internalType": "uint64",
                  "name": "revision_height",
                  "type": "uint64"
                }
              ],
              "internalType": "struct Height.Data",
              "name": "timeout_height",
              "type": "tuple"
            },
            {
              "internalType": "uint64",
              "name": "timeout_timestamp",
              "type": "uint64"
            }
          ],
          "internalType": "struct Packet.Data",
          "name": "packet",
          "type": "tuple"
        }
      ],
      "name": "sendPacket",
      "outputs": [],
      "stateMutability": "nonpayable",
      "type": "function"
    },
    {
      "inputs": [
        {
          "components": [
            {
              "components": [
                {
                  "internalType": "uint64",
                  "name": "sequence",
                  "type": "uint64"
                },
                {
                  "internalType": "string",
                  "name": "source_port",
                  "type": "string"
                },
                {
                  "internalType": "string",
                  "name": "source_channel",
                  "type": "string"
                },
                {
                  "internalType": "string",
                  "name": "destination_port",
                  "type": "string"
                },
                {
                  "internalType": "string",
                  "name": "destination_channel",
                  "type": "string"
                },
                {
                  "internalType": "bytes",
                  "name": "data",
                  "type": "bytes"
                },
                {
                  "components": [
                    {
                      "internalType": "uint64",
                      "name": "revision_number",
                      "type": "uint64"
                    },
                    {
                      "internalType": "uint64",
                      "name": "revision_height",
                      "type": "uint64"
                    }
                  ],
                  "internalType": "struct Height.Data",
                  "name": "timeout_height",
                  "type": "tuple"
                },
                {
                  "internalType": "uint64",
                  "name": "timeout_timestamp",
                  "type": "uint64"
                }
              ],
              "internalType": "struct Packet.Data",
              "name": "packet",
              "type": "tuple"
            },
            {
              "internalType": "bytes",
              "name": "proof",
              "type": "bytes"
            },
            {
              "internalType": "uint64",
              "name": "proofHeight",
              "type": "uint64"
            }
          ],
          "internalType": "struct IBCMsgs.MsgPacketRecv",
          "name": "msg_",
          "type": "tuple"
        }
      ],
      "name": "recvPacket",
      "outputs": [
        {
          "internalType": "bytes",
          "name": "acknowledgement",
          "type": "bytes"
        }
      ],
      "stateMutability": "nonpayable",
      "type": "function"
    },
    {
      "inputs": [
        {
          "internalType": "string",
          "name": "destinationPortId",
          "type": "string"
        },
        {
          "internalType": "string",
          "name": "destinationChannel",
          "type": "string"
        },
        {
          "internalType": "uint64",
          "name": "sequence",
          "type": "uint64"
        },
        {
          "internalType": "bytes",
          "name": "acknowledgement",
          "type": "bytes"
        }
      ],
      "name": "writeAcknowledgement",
      "outputs": [],
      "stateMutability": "nonpayable",
      "type": "function"
    },
    {
      "inputs": [
        {
          "components": [
            {
              "components": [
                {
                  "internalType": "uint64",
                  "name": "sequence",
                  "type": "uint64"
                },
                {
                  "internalType": "string",
                  "name": "source_port",
                  "type": "string"
                },
                {
                  "internalType": "string",
                  "name": "source_channel",
                  "type": "string"
                },
                {
                  "internalType": "string",
                  "name": "destination_port",
                  "type": "string"
                },
                {
                  "internalType": "string",
                  "name": "destination_channel",
                  "type": "string"
                },
                {
                  "internalType": "bytes",
                  "name": "data",
                  "type": "bytes"
                },
                {
                  "components": [
                    {
                      "internalType": "uint64",
                      "name": "revision_number",
                      "type": "uint64"
                    },
                    {
                      "internalType": "uint64",
                      "name": "revision_height",
                      "type": "uint64"
                    }
                  ],
                  "internalType": "struct Height.Data",
                  "name": "timeout_height",
                  "type": "tuple"
                },
                {
                  "internalType": "uint64",
                  "name": "timeout_timestamp",
                  "type": "uint64"
                }
              ],
              "internalType": "struct Packet.Data",
              "name": "packet",
              "type": "tuple"
            },
            {
              "internalType": "bytes",
              "name": "acknowledgement",
              "type": "bytes"
            },
            {
              "internalType": "bytes",
              "name": "proof",
              "type": "bytes"
            },
            {
              "internalType": "uint64",
              "name": "proofHeight",
              "type": "uint64"
            }
          ],
          "internalType": "struct IBCMsgs.MsgPacketAcknowledgement",
          "name": "msg_",
          "type": "tuple"
        }
      ],
      "name": "acknowledgePacket",
      "outputs": [],
      "stateMutability": "nonpayable",
      "type": "function"
    },
    {
      "inputs": [
        {
          "internalType": "string",
          "name": "portId",
          "type": "string"
        },
        {
          "internalType": "address",
          "name": "moduleAddress",
          "type": "address"
        }
      ],
      "name": "bindPort",
      "outputs": [],
      "stateMutability": "nonpayable",
      "type": "function"
    }
  ],
  "bytecode": "0x60806040523480156200001157600080fd5b506040516200356c3803806200356c833981016040819052620000349162000068565b60008054336001600160a01b031991821617909155600180549091166001600160a01b039290921691909117905562000098565b6000602082840312156200007a578081fd5b81516001600160a01b038116811462000091578182fd5b9392505050565b6134c480620000a86000396000f3fe608060405234801561001057600080fd5b50600436106100eb5760003560e01c8063a3af5cf311610092578063a3af5cf3146101a0578063b56e79de146101b3578063da6cea55146101c6578063dd3469fc146101d9578063e2b5827d146101ec578063e46ea828146101ff578063eb238c7714610212578063ec0cda8714610227578063fa044e8f1461023a576100eb565b806301c6400f146100f0578063117e886a14610119578063147aec7f1461012e57806318c198701461014157806340835e441461015457806356a5dc5a146101675780636cf606401461017a5780639e6d49591461018d575b600080fd5b6101036100fe366004612132565b61024d565b604051610110919061280c565b60405180910390f35b61012c610127366004611ba7565b6102f0565b005b61010361013c3660046121d2565b6103ec565b61012c61014f366004611aa9565b610435565b61012c610162366004611beb565b6104b2565b610103610175366004611e81565b61068f565b61012c610188366004611f23565b6108c1565b61012c61019b366004611d2e565b610939565b6101036101ae36600461239c565b610a1d565b61012c6101c1366004611afd565b610d66565b61012c6101d43660046123d4565b610f4e565b6101036101e7366004611df2565b610f92565b61012c6101fa36600461236a565b61108e565b61012c61020d366004611c24565b6110d2565b61021a61118e565b60405161011091906127f8565b61012c610235366004612091565b61119d565b61012c61024836600461236a565b6111e1565b600154604051636046ff5160e01b815260609173__IBCConnection_________________________91636046ff5191610296916001600160a01b03909116908690600401612cd3565b60006040518083038186803b1580156102ae57600080fd5b505af41580156102c2573d6000803e3d6000fd5b505050506040513d6000823e601f3d908101601f191682016040526102ea9190810190611a6f565b92915050565b6102f861138f565b60015460405163012b86d760e51b81526001600160a01b039091169063be3d6e929073__IBCIdentifier_________________________90632570dae09061034490879060040161280c565b60006040518083038186803b15801561035c57600080fd5b505af4158015610370573d6000803e3d6000fd5b505050506040513d6000823e601f3d908101601f191682016040526103989190810190611a6f565b836040518363ffffffff1660e01b81526004016103b692919061281f565b600060405180830381600087803b1580156103d057600080fd5b505af11580156103e4573d6000803e3d6000fd5b505050505050565b6001546040516321392f7b60e11b815260609173__IBCConnection_________________________916342725ef691610296916001600160a01b03909116908690600401612d1a565b600154604051632b37b7c160e01b815273__IBCClient_____________________________91632b37b7c19161047d916001600160a01b031690879087908790600401612849565b60006040518083038186803b15801561049557600080fd5b505af41580156104a9573d6000803e3d6000fd5b50505050505050565b6001546001600160a01b0316632d46858f73__IBCIdentifier_________________________633bc3339f6104ea60208601866132de565b6104f760408801886132de565b6040518563ffffffff1660e01b81526004016105169493929190613191565b60006040518083038186803b15801561052e57600080fd5b505af4158015610542573d6000803e3d6000fd5b505050506040513d6000823e601f3d908101601f1916820160405261056a9190810190611a6f565b336040518363ffffffff1660e01b815260040161058892919061281f565b60206040518083038186803b1580156105a057600080fd5b505afa1580156105b4573d6000803e3d6000fd5b505050506040513d601f19601f820116820180604052508101906105d89190611a4c565b6105e157600080fd5b6001546040516305245c5360e11b815273__IBCChannel____________________________91630a48b8a691610625916001600160a01b0316908590600401612952565b60006040518083038186803b15801561063d57600080fd5b505af4158015610651573d6000803e3d6000fd5b505050507fe701f25bda8992b211749f81adb9a8ea6e8cf8a3c9f2e29ed496e6c5f059154c8160405161068491906132a5565b60405180910390a150565b600154604051632c754d2b60e21b8152606091829173__IBCChannel____________________________9163b1d534ac916106d8916001600160a01b0316908790600401612af7565b60006040518083038186803b1580156106f057600080fd5b505af4158015610704573d6000803e3d6000fd5b505050506040513d6000823e601f3d908101601f1916820160405261072c9190810190611a6f565b9050600061073d8460000151611391565b6040808601516020810151606080830151895184860151608090950151928b01519551634c09c4f960e11b81529697506001600160a01b0388169663981389f29661079596939492938b93909290919060040161310f565b600060405180830381600087803b1580156107af57600080fd5b505af11580156107c3573d6000803e3d6000fd5b50506001548651604051633bc3339f60e01b81526001600160a01b03909216935063be3d6e92925073__IBCIdentifier_________________________91633bc3339f91610815918890600401613249565b60006040518083038186803b15801561082d57600080fd5b505af4158015610841573d6000803e3d6000fd5b505050506040513d6000823e601f3d908101601f191682016040526108699190810190611a6f565b836040518363ffffffff1660e01b815260040161088792919061281f565b600060405180830381600087803b1580156108a157600080fd5b505af11580156108b5573d6000803e3d6000fd5b50939695505050505050565b60015460405163477a78db60e11b815273__IBCConnection_________________________91638ef4f1b691610905916001600160a01b0316908590600401612b5b565b60006040518083038186803b15801561091d57600080fd5b505af4158015610931573d6000803e3d6000fd5b505050505b50565b6001546040516361cf046960e11b815273__IBCChannel____________________________9163c39e08d29161097d916001600160a01b0316908590600401612a2b565b60006040518083038186803b15801561099557600080fd5b505af41580156109a9573d6000803e3d6000fd5b505050506109ba8160000151611391565b8151602083015160405163a113e41160e01b81526001600160a01b03939093169263a113e411926109ef929091600401613249565b600060405180830381600087803b158015610a0957600080fd5b505af1158015610931573d6000803e3d6000fd5b60606000610ac5610a2e8480613324565b610a3c9060608101906132de565b8080601f016020809104026020016040519081016040528093929190818152602001838380828437600092019190915250610a7d9250879150819050613324565b610a8b9060808101906132de565b8080601f0160208091040260200160405190810160405280939291908181526020018383808284376000920191909152506114b692505050565b90506001600160a01b038116635550b656610ae08580613324565b6040518263ffffffff1660e01b8152600401610afc91906132a5565b600060405180830381600087803b158015610b1657600080fd5b505af1158015610b2a573d6000803e3d6000fd5b505050506040513d6000823e601f3d908101601f19168201604052610b529190810190611a6f565b60015460405163b5d6d6f960e01b815291935073__IBCChannel____________________________9163b5d6d6f991610b9b916001600160a01b03909116908790600401612fb2565b60006040518083038186803b158015610bb357600080fd5b505af4158015610bc7573d6000803e3d6000fd5b50505050600082511115610d205760015473__IBCChannel____________________________90630badf100906001600160a01b0316610c078680613324565b610c159060608101906132de565b610c1f8880613324565b610c2d9060808101906132de565b610c378a80613324565b610c4590602081019061240c565b896040518863ffffffff1660e01b8152600401610c6897969594939291906128ea565b60006040518083038186803b158015610c8057600080fd5b505af4158015610c94573d6000803e3d6000fd5b507f39b14668930c816f244f4073c0fdf459d3dd73ae571b57b3efe8205919472d2a9250610cc6915085905080613324565b610cd49060608101906132de565b610cde8680613324565b610cec9060808101906132de565b610cf68880613324565b610d0490602081019061240c565b87604051610d1796959493929190613201565b60405180910390a15b7f346f4351ee865d86a679d00f3995f0520f803d3a227604af08430e26e9345a7a610d4b8480613324565b604051610d5891906132a5565b60405180910390a150919050565b600154604051633bc3339f60e01b81526001600160a01b0390911690632d46858f9073__IBCIdentifier_________________________90633bc3339f90610db8908c908c908c908c90600401613191565b60006040518083038186803b158015610dd057600080fd5b505af4158015610de4573d6000803e3d6000fd5b505050506040513d6000823e601f3d908101601f19168201604052610e0c9190810190611a6f565b336040518363ffffffff1660e01b8152600401610e2a92919061281f565b60206040518083038186803b158015610e4257600080fd5b505afa158015610e56573d6000803e3d6000fd5b505050506040513d601f19601f82011682018060405250810190610e7a9190611a4c565b610e8357600080fd5b600154604051620badf160e81b815273__IBCChannel____________________________91630badf10091610ed2916001600160a01b0316908b908b908b908b908b908b908b90600401612880565b60006040518083038186803b158015610eea57600080fd5b505af4158015610efe573d6000803e3d6000fd5b505050507f39b14668930c816f244f4073c0fdf459d3dd73ae571b57b3efe8205919472d2a87878787878787604051610f3d97969594939291906131b8565b60405180910390a150505050505050565b600154604051630854414f60e41b815273__IBCClient_____________________________9163854414f091610905916001600160a01b0316908590600401613038565b6001546040516320d98d5360e01b8152606091829173__IBCChannel____________________________916320d98d5391610fdb916001600160a01b0316908790600401612ab1565b60006040518083038186803b158015610ff357600080fd5b505af4158015611007573d6000803e3d6000fd5b505050506040513d6000823e601f3d908101601f1916820160405261102f9190810190611a6f565b905060006110408460000151611391565b6020808601519081015160608201518751604080850151608090950151905163089bb2c760e31b81529596506001600160a01b038716956344dd963895610795959493928a92600401613093565b600154604051634f55a57160e11b815273__IBCClient_____________________________91639eab4ae291610905916001600160a01b0316908590600401612e53565b600154604051632bc1fa8f60e21b815273__IBCChannel____________________________9163af07ea3c91611116916001600160a01b0316908590600401612976565b60006040518083038186803b15801561112e57600080fd5b505af4158015611142573d6000803e3d6000fd5b505050506111538160000151611391565b6001600160a01b0316634942d1ac8260000151836020015184604001516040518463ffffffff1660e01b81526004016109ef9392919061326e565b6001546001600160a01b031690565b600154604051630d8aadf760e11b815273__IBCConnection_________________________91631b155bee91610905916001600160a01b0316908590600401612c6c565b600061124d6111f08380613324565b6111fe9060208101906132de565b8080601f01602080910402602001604051908101604052809392919081815260200183838082843760009201919091525061123f9250869150819050613324565b610a8b9060408101906132de565b90506001600160a01b03811663da7b08a76112688480613324565b61127560208601866132de565b6040518463ffffffff1660e01b8152600401611293939291906132b8565b600060405180830381600087803b1580156112ad57600080fd5b505af11580156112c1573d6000803e3d6000fd5b5050600154604051637696464d60e11b815273__IBCChannel____________________________935063ed2c8c9a9250611309916001600160a01b0316908690600401612f02565b60006040518083038186803b15801561132157600080fd5b505af4158015611335573d6000803e3d6000fd5b507f47471450765e6e1b0b055ba2a1de04d4ce71f778c92b306e725083eb120dfd899250611367915084905080613324565b61137460208501856132de565b604051611383939291906132b8565b60405180910390a15050565b565b60015460405163012b86d760e51b8152600091829182916001600160a01b03169063ace6cfb79073__IBCIdentifier_________________________90632570dae0906113e290899060040161280c565b60006040518083038186803b1580156113fa57600080fd5b505af415801561140e573d6000803e3d6000fd5b505050506040513d6000823e601f3d908101601f191682016040526114369190810190611a6f565b6040518263ffffffff1660e01b8152600401611452919061280c565b604080518083038186803b15801561146957600080fd5b505afa15801561147d573d6000803e3d6000fd5b505050506040513d601f19601f820116820180604052508101906114a19190611a13565b91509150806114af57600080fd5b5092915050565b600154604051633bc3339f60e01b8152600091829182916001600160a01b03169063ace6cfb79073__IBCIdentifier_________________________90633bc3339f90611509908a908a90600401613249565b60006040518083038186803b15801561152157600080fd5b505af4158015611535573d6000803e3d6000fd5b505050506040513d6000823e601f3d908101601f1916820160405261155d9190810190611a6f565b6040518263ffffffff1660e01b8152600401611579919061280c565b604080518083038186803b15801561159057600080fd5b505afa1580156115a4573d6000803e3d6000fd5b505050506040513d601f19601f820116820180604052508101906115c89190611a13565b91509150806115d657600080fd5b509392505050565b600082601f8301126115ee578081fd5b81356116016115fc8261336a565b613344565b818152915060208083019084810160005b8481101561163b57611629888484358a01016116e4565b84529282019290820190600101611612565b505050505092915050565b600082601f830112611656578081fd5b81356116646115fc8261336a565b818152915060208083019084810160005b8481101561163b5761168c888484358a010161185b565b84529282019290820190600101611675565b60008083601f8401126116af578182fd5b5081356001600160401b038111156116c5578182fd5b6020830191508360208285010111156116dd57600080fd5b9250929050565b600082601f8301126116f4578081fd5b81356117026115fc82613389565b915080825283602082850101111561171957600080fd5b8060208401602084013760009082016020015292915050565b600082601f830112611742578081fd5b81516117506115fc82613389565b915080825283602082850101111561176757600080fd5b6114af81602084016020860161341c565b8035600381106102ea57600080fd5b8035600581106102ea57600080fd5b6000606082840312156117a7578081fd5b6117b16060613344565b905081356001600160401b03808211156117ca57600080fd5b6117d6858386016116e4565b835260208401359150808211156117ec57600080fd5b6117f8858386016116e4565b6020840152604084013591508082111561181157600080fd5b8184016020818703121561182457600080fd5b61182e6020613344565b925080358281111561183f57600080fd5b61184b878284016116e4565b8452505050604082015292915050565b60006040828403121561186c578081fd5b6118766040613344565b905081356001600160401b038082111561188f57600080fd5b61189b858386016116e4565b835260208401359150808211156118b157600080fd5b506118be848285016115de565b60208301525092915050565b600060a082840312156118db578081fd5b6118e560a0613344565b90506118f18383611787565b81526119008360208401611778565b602082015260408201356001600160401b038082111561191f57600080fd5b61192b85838601611982565b6040840152606084013591508082111561194457600080fd5b611950858386016115de565b6060840152608084013591508082111561196957600080fd5b50611976848285016116e4565b60808301525092915050565b600060408284031215611993578081fd5b61199d6040613344565b905081356001600160401b03808211156119b657600080fd5b6119c2858386016116e4565b835260208401359150808211156119d857600080fd5b506118be848285016116e4565b6000608082840312156119f6578081fd5b50919050565b80356001600160401b03811681146102ea57600080fd5b60008060408385031215611a25578182fd5b8251611a3081613456565b6020840151909250611a418161346b565b809150509250929050565b600060208284031215611a5d578081fd5b8151611a688161346b565b9392505050565b600060208284031215611a80578081fd5b81516001600160401b03811115611a95578182fd5b611aa184828501611732565b949350505050565b600080600060408486031215611abd578081fd5b83356001600160401b03811115611ad2578182fd5b611ade8682870161169e565b9094509250506020840135611af281613456565b809150509250925092565b60008060008060008060006080888a031215611b17578485fd5b87356001600160401b0380821115611b2d578687fd5b611b398b838c0161169e565b909950975060208a0135915080821115611b51578687fd5b611b5d8b838c0161169e565b909750955060408a01359150611b7282613479565b90935060608901359080821115611b87578384fd5b50611b948a828b0161169e565b989b979a50959850939692959293505050565b60008060408385031215611bb9578182fd5b82356001600160401b03811115611bce578283fd5b611bda858286016116e4565b9250506020830135611a4181613456565b600060208284031215611bfc578081fd5b81356001600160401b03811115611c11578182fd5b8083016101208186031215611aa1578283fd5b600060208284031215611c35578081fd5b81356001600160401b0380821115611c4b578283fd5b81840160c08187031215611c5d578384fd5b611c6760c0613344565b9250803582811115611c77578485fd5b611c83878284016116e4565b845250602081013582811115611c97578485fd5b611ca3878284016116e4565b602085015250604081013582811115611cba578485fd5b611cc6878284016116e4565b604085015250606081013582811115611cdd578485fd5b611ce9878284016116e4565b606085015250608081013582811115611d00578485fd5b611d0c878284016116e4565b608085015250611d1f8660a083016119fc565b60a08401525090949350505050565b600060208284031215611d3f578081fd5b81356001600160401b0380821115611d55578283fd5b81840160808187031215611d67578384fd5b611d716080613344565b9250803582811115611d81578485fd5b611d8d878284016116e4565b845250602081013582811115611da1578485fd5b611dad878284016116e4565b602085015250604081013582811115611dc4578485fd5b611dd0878284016116e4565b604085015250611de386606083016119fc565b60608401525090949350505050565b600060208284031215611e03578081fd5b81356001600160401b0380821115611e19578283fd5b81840160408187031215611e2b578384fd5b611e356040613344565b9250803582811115611e45578485fd5b611e51878284016116e4565b845250602081013582811115611e65578485fd5b611e71878284016118ca565b6020850152509195945050505050565b600060208284031215611e92578081fd5b81356001600160401b0380821115611ea8578283fd5b81840160c08187031215611eba578384fd5b611ec460c0613344565b9250803582811115611ed4578485fd5b611ee0878284016116e4565b845250602081013582811115611ef4578485fd5b611f00878284016116e4565b602085015250604081013582811115611f17578485fd5b611cc6878284016118ca565b600060208284031215611f34578081fd5b81356001600160401b0380821115611f4a578283fd5b610120918401808603831315611f5e578384fd5b611f6783613344565b8135935082841115611f77578485fd5b611f83878584016116e4565b81526020820135935082841115611f98578485fd5b611fa4878584016116e4565b60208201526040820135935082841115611fbc578485fd5b611fc88785840161185b565b60408201526060820135935082841115611fe0578485fd5b611fec878584016116e4565b60608201526080820135935082841115612004578485fd5b612010878584016116e4565b608082015260a0820135935082841115612028578485fd5b612034878584016116e4565b60a082015260c082013593508284111561204c578485fd5b612058878584016116e4565b60c082015261206a8760e084016119fc565b60e08201526101009350612080878584016119fc565b848201528094505050505092915050565b6000602082840312156120a2578081fd5b81356001600160401b03808211156120b8578283fd5b818401606081870312156120ca578384fd5b6120d46060613344565b92508035828111156120e4578485fd5b6120f0878284016116e4565b845250602081013582811115612104578485fd5b612110878284016116e4565b60208501525061212386604083016119fc565b60408401525090949350505050565b600060208284031215612143578081fd5b81356001600160401b0380821115612159578283fd5b8184016060818703121561216b578384fd5b6121756060613344565b9250803582811115612185578485fd5b612191878284016116e4565b8452506020810135828111156121a5578485fd5b6121b187828401611796565b6020850152506040013590506121c681613479565b60408201529392505050565b6000602082840312156121e3578081fd5b81356001600160401b03808211156121f9578283fd5b61016091840180860383131561220d578384fd5b61221683613344565b8135935082841115612226578485fd5b612232878584016116e4565b81526020820135935082841115612247578485fd5b61225387858401611796565b602082015261226587604084016119fc565b6040820152606082013593508284111561227d578485fd5b612289878584016116e4565b606082015260808201359350828411156122a1578485fd5b6122ad878584016116e4565b608082015260a08201359350828411156122c5578485fd5b6122d187858401611646565b60a082015260c08201359350828411156122e9578485fd5b6122f5878584016116e4565b60c082015260e082013593508284111561230d578485fd5b612319878584016116e4565b60e082015261010093508382013583811115612333578586fd5b61233f888285016116e4565b85830152506101209350612355878584016119fc565b848201526101409350612080878584016119fc565b60006020828403121561237b578081fd5b81356001600160401b03811115612390578182fd5b611aa1848285016119e5565b6000602082840312156123ad578081fd5b81356001600160401b038111156123c2578182fd5b80830160608186031215611aa1578283fd5b6000602082840312156123e5578081fd5b81356001600160401b038111156123fa578182fd5b80830160408186031215611aa1578283fd5b60006020828403121561241d578081fd5b8135611a6881613479565b6000815180845260208085018081965082840281019150828601855b8581101561246e57828403895261245c848351612531565b98850198935090840190600101612444565b5091979650505050505050565b6000815180845260208085018081965082840281019150828601855b8581101561246e5782840389526124af848351612531565b98850198935090840190600101612497565b6000815180845260208085018081965082840281019150828601855b8581101561246e5782840389526124f58483516126f7565b988501989350908401906001016124dd565b60008284528282602086013780602084860101526020601f19601f85011685010190509392505050565b6000815180845261254981602086016020860161341c565b601f01601f19169290920160200192915050565b6000610120602083016125798561257483876119fc565b6127eb565b61258381856133ac565b8360208801526125968488018284612507565b925050506125a760408501856133ac565b925085820360408701526125bc828483612507565b6125c960608701876133ac565b9450925086810360608801526125e0818585612507565b9150506125f060808601866133ac565b935091508581036080870152612607818484612507565b61261460a08701876133ac565b9450925086810360a088015261262b818585612507565b91505061263e60c0870160c08701612666565b610100925061264f8386018661340f565b915061265d838701836127eb565b95945050505050565b803561267181613479565b6001600160401b0380821684528061268f60408501602086016119fc565b16602085015250505050565b60008151606084526126b06060850182612531565b6020840151915084810360208601526126c98183612531565b60408501519250858103604087015282519150602081526126ed6020820183612531565b9695505050505050565b600081516040845261270c6040850182612531565b60208401519150848103602086015261265d818361247b565b600081516005811061273357fe5b835260208201516127438161344c565b80602085015250604082015160a060408501528051604060a086015261276c60e0860182612531565b6020830151868203609f190160c088015291506127898183612531565b92505050606083015184820360608601526127a4828261247b565b6080850151925085810360808701526126ed8184612531565b60008151604084526127d26040850182612531565b60208401519150848103602086015261265d8183612531565b6001600160401b03169052565b6001600160a01b0391909116815260200190565b600060208252611a686020830184612531565b6000604082526128326040830185612531565b905060018060a01b03831660208301529392505050565b600060018060a01b0380871683526060602084015261286c606084018688612507565b915080841660408401525095945050505050565b6001600160a01b038916815260a0602082018190526000906128a5908301898b612507565b82810360408401526128b881888a612507565b6001600160401b038716606085015283810360808501526128da818688612507565b9c9b505050505050505050505050565b6001600160a01b038816815260a06020820181905260009061290f908301888a612507565b8281036040840152612922818789612507565b6001600160401b038616606085015283810360808501526129438186612531565b9b9a5050505050505050505050565b6001600160a01b0383168152604060208201819052600090611aa19083018461255d565b600060018060a01b038416825260406020830152825160c060408401526129a1610100840182612531565b60208501519150603f19808583030160608601526129bf8284612531565b60408701519350818682030160808701526129da8185612531565b92505060608601519250808583030160a08601526129f88284612531565b60808701519350818682030160c0870152612a138185612531565b9250505060a0850151915061265d60e08501836127eb565b600060018060a01b038416825260406020830152825160806040840152612a5560c0840182612531565b60208501519150603f1980858303016060860152612a738284612531565b6040870151935081868203016080870152612a8e8185612531565b925050506001600160401b0360608601511660a085015280925050509392505050565b600060018060a01b0384168252604060208301528251604080840152612ada6080840182612531565b6020850151848203603f1901606086015291506126ed8183612725565b600060018060a01b038416825260406020830152825160c06040840152612b22610100840182612531565b60208501519150603f1980858303016060860152612b408284612531565b60408701519350818682030160808701526129da8185612725565b600060018060a01b0384168252604060208301528251610120806040850152612b88610160850183612531565b60208601519250603f1980868303016060870152612ba68285612531565b6040880151945081878203016080880152612bc181866126f7565b92505060608701519350808683030160a0870152612bdf8285612531565b60808801519450818782030160c0880152612bfa8186612531565b92505060a08701519350808683030160e0870152612c188285612531565b60c088015194506101009250818782030183880152612c378186612531565b91505060e08701519350612c4d838701856127eb565b818701519350612c616101408701856127eb565b979650505050505050565b600060018060a01b038416825260406020830152825160606040840152612c9660a0840182612531565b6020850151848203603f190160608601529150612cb38183612531565b6001600160401b0360408701511660808601528093505050509392505050565b600060018060a01b038416825260406020830152825160606040840152612cfd60a0840182612531565b6020850151848203603f190160608601529150612cb3818361269b565b600060018060a01b0384168252604060208301528251610160806040850152612d476101a0850183612531565b60208601519250603f1980868303016060870152612d65828561269b565b60408801519450612d7960808801866127eb565b60608801519450818782030160a0880152612d948186612531565b92505060808701519350808683030160c0870152612db28285612531565b60a08801519450818782030160e0880152612dcd81866124c1565b92505060c08701519350610100818784030181880152612ded8386612531565b60e089015195506101209350828882030184890152612e0c8187612531565b828a0151965061014092508389820301838a0152612e2a8188612531565b93505050828801519450612e40848801866127eb565b8701519350612c616101808701856127eb565b6001600160a01b0383168152604060208201526000612e7283806133ac565b60806040850152612e8760c085018284612507565b60208601359250612e9783613479565b6001600160401b0383166060860152612eb360408701876133ac565b93509150603f1980868303016080870152612ecf828585612507565b612edc60608901896133ac565b95509350818782030160a0880152612ef5818686612507565b9998505050505050505050565b6001600160a01b0383168152604060208201526000612f2183806133f0565b60806040840152612f3560c084018261255d565b612f4260208601866133ac565b9250603f1980868403016060870152612f5c838584612507565b612f6960408901896133ac565b9550935081878203016080880152612f82818686612507565b9250505060608601359250612f9683613479565b6001600160401b03831660a08601528093505050509392505050565b6001600160a01b0383168152604060208201526000612fd183806133f0565b60606040840152612fe560a084018261255d565b612ff260208601866133ac565b858303603f19016060870152925061300b828483612507565b6040870135935061301b84613479565b6001600160401b0384166080870152809450505050509392505050565b6001600160a01b038316815260406020820152600061305783806133ac565b60408085015261306b608085018284612507565b61307860208701876133ac565b868303603f1901606088015293509150612c61818484612507565b60006003881061309f57fe5b87825260c060208301526130b660c0830188612428565b82810360408401526130c88188612531565b83810360608501526130da8188612531565b91505082810360808401526130ef81866127bd565b83810360a08501526131018186612531565b9a9950505050505050505050565b600061311a8961344c565b88825260e0602083015261313160e0830189612428565b82810360408401526131438189612531565b83810360608501526131558189612531565b915050828103608084015261316a81876127bd565b83810360a085015261317c8187612531565b91505082810360c08401526131018185612531565b6000604082526131a5604083018688612507565b8281036020840152612c61818587612507565b6000608082526131cc60808301898b612507565b82810360208401526131df81888a612507565b6001600160401b03871660408501528381036060850152612943818688612507565b60006080825261321560808301888a612507565b8281036020840152613228818789612507565b6001600160401b038616604085015283810360608501526131018186612531565b60006040825261325c6040830185612531565b828103602084015261265d8185612531565b6000606082526132816060830186612531565b82810360208401526132938186612531565b8381036040850152612c618186612531565b600060208252611a68602083018461255d565b6000604082526132cb604083018661255d565b82810360208401526126ed818587612507565b6000808335601e198436030181126132f4578283fd5b808401803592506001600160401b0383111561330e578384fd5b602001925050368190038213156116dd57600080fd5b6000823561011e1983360301811261333a578182fd5b9190910192915050565b6040518181016001600160401b038111828210171561336257600080fd5b604052919050565b60006001600160401b0382111561337f578081fd5b5060209081020190565b60006001600160401b0382111561339e578081fd5b50601f01601f191660200190565b6000808335601e198436030181126133c2578283fd5b83016020810192503590506001600160401b038111156133e157600080fd5b8036038313156116dd57600080fd5b6000823561011e19833603018112613406578182fd5b90910192915050565b60008235611a6881613479565b60005b8381101561343757818101518382015260200161341f565b83811115613446576000848401525b50505050565b6003811061093657fe5b6001600160a01b038116811461093657600080fd5b801515811461093657600080fd5b6001600160401b038116811461093657600080fdfea264697066735822122044b1bf314d4228d08e24b5641b786d58cfb0b84a9d407bf5f9770c9d1d06b5f664736f6c63430006080033",
  "immutableReferences": {},
  "source": "pragma solidity ^0.6.8;\npragma experimental ABIEncoderV2;\n\nimport \"./IClient.sol\";\nimport \"./IBCClient.sol\";\nimport \"./IBCChannel.sol\";\nimport \"./IBCModule.sol\";\nimport \"./IBCMsgs.sol\";\nimport \"./IBCIdentifier.sol\";\nimport \"./types/Channel.sol\";\n\ncontract IBCHandler {\n\n    address owner;\n    IBCHost host;\n\n    /// Event definitions ///\n    event SendPacket(Packet.Data packet);\n    event RecvPacket(Packet.Data packet);\n    event WriteAcknowledgement(string destinationPortId, string destinationChannel, uint64 sequence, bytes acknowledgement);\n    event AcknowledgePacket(Packet.Data packet, bytes acknowledgement);\n\n    constructor(IBCHost host_) public {\n        owner = msg.sender;\n        host = host_;\n    }\n\n    function getHostAddress() external view returns (address) {\n        return address(host);\n    }\n\n    function registerClient(string calldata clientType, IClient client) external {\n        //require(msg.sender == owner);\n        return IBCClient.registerClient(host, clientType, client);\n    }\n\n    /// Handler interface implementations ///\n\n    function createClient(IBCMsgs.MsgCreateClient calldata msg_) external {\n        return IBCClient.createClient(host, msg_);\n    }\n\n    function updateClient(IBCMsgs.MsgUpdateClient calldata msg_) external {\n        return IBCClient.updateClient(host, msg_);\n    }\n\n    function connectionOpenInit(IBCMsgs.MsgConnectionOpenInit memory msg_) public returns (string memory) {\n        return IBCConnection.connectionOpenInit(host, msg_);\n    }\n\n    function connectionOpenTry(IBCMsgs.MsgConnectionOpenTry memory msg_) public returns (string memory) {\n        return IBCConnection.connectionOpenTry(host, msg_);\n    }\n\n    function connectionOpenAck(IBCMsgs.MsgConnectionOpenAck memory msg_) public {\n        return IBCConnection.connectionOpenAck(host, msg_);\n    }\n\n    function connectionOpenConfirm(IBCMsgs.MsgConnectionOpenConfirm memory msg_) public {\n        return IBCConnection.connectionOpenConfirm(host, msg_);\n    }\n\n    function channelOpenInit(IBCMsgs.MsgChannelOpenInit memory msg_) public returns (string memory) {\n        string memory channelId = IBCChannel.channelOpenInit(host, msg_);\n        IModuleCallbacks module = lookupModuleByPortId(msg_.portId);\n        module.onChanOpenInit(\n            msg_.channel.ordering,\n            msg_.channel.connection_hops,\n            msg_.portId,\n            channelId,\n            msg_.channel.counterparty,\n            msg_.channel.version\n        );\n        host.claimCapability(IBCIdentifier.channelCapabilityPath(msg_.portId, channelId), address(module));\n        return channelId;\n    }\n\n    function channelOpenTry(IBCMsgs.MsgChannelOpenTry memory msg_) public returns (string memory) {\n        string memory channelId = IBCChannel.channelOpenTry(host, msg_);\n        IModuleCallbacks module = lookupModuleByPortId(msg_.portId);\n        module.onChanOpenTry(\n            msg_.channel.ordering,\n            msg_.channel.connection_hops,\n            msg_.portId,\n            channelId,\n            msg_.channel.counterparty,\n            msg_.channel.version,\n            msg_.counterpartyVersion\n        );\n        host.claimCapability(IBCIdentifier.channelCapabilityPath(msg_.portId, channelId), address(module));\n        return channelId;\n    }\n\n    function channelOpenAck(IBCMsgs.MsgChannelOpenAck memory msg_) public {\n        IBCChannel.channelOpenAck(host, msg_);\n        lookupModuleByPortId(msg_.portId).onChanOpenAck(msg_.portId, msg_.channelId, msg_.counterpartyVersion);\n    }\n\n    function channelOpenConfirm(IBCMsgs.MsgChannelOpenConfirm memory msg_) public {\n        IBCChannel.channelOpenConfirm(host, msg_);\n        lookupModuleByPortId(msg_.portId).onChanOpenConfirm(msg_.portId, msg_.channelId);\n    }\n\n    function sendPacket(Packet.Data calldata packet) external {\n        require(host.authenticateCapability(\n            IBCIdentifier.channelCapabilityPath(packet.source_port, packet.source_channel),\n            msg.sender\n        ));\n        IBCChannel.sendPacket(host, packet);\n        emit SendPacket(packet);\n    }\n\n    function recvPacket(IBCMsgs.MsgPacketRecv calldata msg_) external returns (bytes memory acknowledgement) {\n        IModuleCallbacks module = lookupModuleByChannel(msg_.packet.destination_port, msg_.packet.destination_channel);\n        acknowledgement = module.onRecvPacket(msg_.packet);\n        IBCChannel.recvPacket(host, msg_);\n        if (acknowledgement.length > 0) {\n            IBCChannel.writeAcknowledgement(host, msg_.packet.destination_port, msg_.packet.destination_channel, msg_.packet.sequence, acknowledgement);\n            emit WriteAcknowledgement(msg_.packet.destination_port, msg_.packet.destination_channel, msg_.packet.sequence, acknowledgement);\n        }\n        emit RecvPacket(msg_.packet);\n        return acknowledgement;\n    }\n\n    function writeAcknowledgement(string calldata destinationPortId, string calldata destinationChannel, uint64 sequence, bytes calldata acknowledgement) external {\n        require(host.authenticateCapability(\n            IBCIdentifier.channelCapabilityPath(destinationPortId, destinationChannel),\n            msg.sender\n        ));\n        IBCChannel.writeAcknowledgement(host, destinationPortId, destinationChannel, sequence, acknowledgement);\n        emit WriteAcknowledgement(destinationPortId, destinationChannel, sequence, acknowledgement);\n    }\n\n    function acknowledgePacket(IBCMsgs.MsgPacketAcknowledgement calldata msg_) external {\n        IModuleCallbacks module = lookupModuleByChannel(msg_.packet.source_port, msg_.packet.source_channel);\n        module.onAcknowledgementPacket(msg_.packet, msg_.acknowledgement);\n        IBCChannel.acknowledgePacket(host, msg_);\n        emit AcknowledgePacket(msg_.packet, msg_.acknowledgement);\n    }\n\n    function bindPort(string memory portId, address moduleAddress) public {\n        onlyOwner();\n        host.claimCapability(IBCIdentifier.portCapabilityPath(portId), moduleAddress);\n    }\n\n    function lookupModuleByPortId(string memory portId) internal view returns (IModuleCallbacks) {\n        (address module, bool found) = host.getModuleOwner(IBCIdentifier.portCapabilityPath(portId));\n        require(found);\n        return IModuleCallbacks(module);\n    }\n\n    function lookupModuleByChannel(string memory portId, string memory channelId) internal view returns (IModuleCallbacks) {\n        (address module, bool found) = host.getModuleOwner(IBCIdentifier.channelCapabilityPath(portId, channelId));\n        require(found);\n        return IModuleCallbacks(module);\n    }\n\n    function onlyOwner() internal view {\n        //require(msg.sender == owner);\n    }\n}\n",
  "sourcePath": "/home/giulio/src/github.com/mkaczanowski/yui-ibc-solidity/contracts/core/IBCHandler.sol",
  "compiler": {
    "name": "solc",
    "version": "0.6.8+commit.0bbfe453.Emscripten.clang"
  },
  "schemaVersion": "3.4.3",
  "updatedAt": "2021-10-05T14:01:32.135Z",
  "networkType": "ethereum",
  "devdoc": {
    "methods": {}
  },
  "userdoc": {
    "methods": {
      "createClient((string,uint64,bytes,bytes))": {
        "notice": "Handler interface implementations ///"
      }
    }
  }
}