{
  "contractName": "TendermintClient",
  "abi": [
    {
      "inputs": [],
      "stateMutability": "nonpayable",
      "type": "constructor"
    },
    {
      "anonymous": false,
      "inputs": [
        {
          "indexed": false,
          "internalType": "string",
          "name": "text",
          "type": "string"
        },
        {
          "indexed": false,
          "internalType": "bytes",
          "name": "data",
          "type": "bytes"
        }
      ],
      "name": "Log",
      "type": "event"
    },
    {
      "anonymous": false,
      "inputs": [
        {
          "indexed": false,
          "internalType": "string",
          "name": "text",
          "type": "string"
        },
        {
          "components": [
            {
              "internalType": "enum TENDERMINT_LIGHT_PROTO_GLOBAL_ENUMS.SignedMsgType",
              "name": "Type",
              "type": "uint8"
            },
            {
              "internalType": "int64",
              "name": "height",
              "type": "int64"
            },
            {
              "internalType": "int32",
              "name": "round",
              "type": "int32"
            },
            {
              "components": [
                {
                  "internalType": "bytes",
                  "name": "hash",
                  "type": "bytes"
                },
                {
                  "components": [
                    {
                      "internalType": "uint32",
                      "name": "total",
                      "type": "uint32"
                    },
                    {
                      "internalType": "bytes",
                      "name": "hash",
                      "type": "bytes"
                    }
                  ],
                  "internalType": "struct PartSetHeader.Data",
                  "name": "part_set_header",
                  "type": "tuple"
                }
              ],
              "internalType": "struct BlockID.Data",
              "name": "block_id",
              "type": "tuple"
            },
            {
              "components": [
                {
                  "internalType": "int64",
                  "name": "Seconds",
                  "type": "int64"
                },
                {
                  "internalType": "int32",
                  "name": "nanos",
                  "type": "int32"
                }
              ],
              "internalType": "struct Timestamp.Data",
              "name": "timestamp",
              "type": "tuple"
            },
            {
              "internalType": "bytes",
              "name": "validator_address",
              "type": "bytes"
            },
            {
              "internalType": "int32",
              "name": "validator_index",
              "type": "int32"
            },
            {
              "internalType": "bytes",
              "name": "signature",
              "type": "bytes"
            }
          ],
          "indexed": false,
          "internalType": "struct Vote.Data",
          "name": "",
          "type": "tuple"
        }
      ],
      "name": "Log",
      "type": "event"
    },
    {
      "anonymous": false,
      "inputs": [
        {
          "indexed": false,
          "internalType": "string",
          "name": "text",
          "type": "string"
        },
        {
          "indexed": false,
          "internalType": "bool",
          "name": "",
          "type": "bool"
        }
      ],
      "name": "Log",
      "type": "event"
    },
    {
      "anonymous": false,
      "inputs": [
        {
          "indexed": false,
          "internalType": "string",
          "name": "text",
          "type": "string"
        },
        {
          "indexed": false,
          "internalType": "int64",
          "name": "",
          "type": "int64"
        }
      ],
      "name": "Log",
      "type": "event"
    },
    {
      "anonymous": false,
      "inputs": [
        {
          "indexed": false,
          "internalType": "string",
          "name": "text",
          "type": "string"
        },
        {
          "indexed": false,
          "internalType": "uint256",
          "name": "",
          "type": "uint256"
        }
      ],
      "name": "Log",
      "type": "event"
    },
    {
      "anonymous": false,
      "inputs": [
        {
          "indexed": false,
          "internalType": "string",
          "name": "text",
          "type": "string"
        },
        {
          "indexed": false,
          "internalType": "uint32",
          "name": "",
          "type": "uint32"
        }
      ],
      "name": "Log",
      "type": "event"
    },
    {
      "anonymous": false,
      "inputs": [
        {
          "indexed": false,
          "internalType": "string",
          "name": "text",
          "type": "string"
        },
        {
          "indexed": false,
          "internalType": "uint64",
          "name": "",
          "type": "uint64"
        }
      ],
      "name": "Log",
      "type": "event"
    },
    {
      "anonymous": false,
      "inputs": [
        {
          "indexed": false,
          "internalType": "string",
          "name": "text",
          "type": "string"
        },
        {
          "indexed": false,
          "internalType": "bytes32",
          "name": "",
          "type": "bytes32"
        }
      ],
      "name": "Log",
      "type": "event"
    },
    {
      "anonymous": false,
      "inputs": [
        {
          "indexed": false,
          "internalType": "string",
          "name": "text",
          "type": "string"
        }
      ],
      "name": "Log",
      "type": "event"
    },
    {
      "inputs": [
        {
          "internalType": "contract IBCHost",
          "name": "host",
          "type": "address"
        },
        {
          "internalType": "string",
          "name": "clientId",
          "type": "string"
        },
        {
          "internalType": "uint64",
          "name": "height",
          "type": "uint64"
        }
      ],
      "name": "getTimestampAtHeight",
      "outputs": [
        {
          "internalType": "uint64",
          "name": "",
          "type": "uint64"
        },
        {
          "internalType": "bool",
          "name": "",
          "type": "bool"
        }
      ],
      "stateMutability": "view",
      "type": "function",
      "constant": true
    },
    {
      "inputs": [
        {
          "internalType": "contract IBCHost",
          "name": "host",
          "type": "address"
        },
        {
          "internalType": "string",
          "name": "clientId",
          "type": "string"
        }
      ],
      "name": "getLatestHeight",
      "outputs": [
        {
          "internalType": "uint64",
          "name": "",
          "type": "uint64"
        },
        {
          "internalType": "bool",
          "name": "",
          "type": "bool"
        }
      ],
      "stateMutability": "view",
      "type": "function",
      "constant": true
    },
    {
      "inputs": [
        {
          "internalType": "contract IBCHost",
          "name": "host",
          "type": "address"
        },
        {
          "internalType": "string",
          "name": "clientId",
          "type": "string"
        },
        {
          "internalType": "bytes",
          "name": "clientStateBytes",
          "type": "bytes"
        },
        {
          "internalType": "bytes",
          "name": "headerBytes",
          "type": "bytes"
        }
      ],
      "name": "checkHeaderAndUpdateState",
      "outputs": [
        {
          "internalType": "bytes",
          "name": "newClientStateBytes",
          "type": "bytes"
        },
        {
          "internalType": "bytes",
          "name": "newConsensusStateBytes",
          "type": "bytes"
        },
        {
          "internalType": "uint64",
          "name": "height",
          "type": "uint64"
        }
      ],
      "stateMutability": "nonpayable",
      "type": "function"
    },
    {
      "inputs": [
        {
          "internalType": "contract IBCHost",
          "name": "host",
          "type": "address"
        },
        {
          "internalType": "string",
          "name": "clientId",
          "type": "string"
        },
        {
          "internalType": "uint64",
          "name": "height",
          "type": "uint64"
        },
        {
          "internalType": "bytes",
          "name": "prefix",
          "type": "bytes"
        },
        {
          "internalType": "string",
          "name": "counterpartyClientIdentifier",
          "type": "string"
        },
        {
          "internalType": "bytes",
          "name": "proof",
          "type": "bytes"
        },
        {
          "internalType": "bytes",
          "name": "clientStateBytes",
          "type": "bytes"
        }
      ],
      "name": "verifyClientState",
      "outputs": [
        {
          "internalType": "bool",
          "name": "",
          "type": "bool"
        }
      ],
      "stateMutability": "view",
      "type": "function",
      "constant": true
    },
    {
      "inputs": [
        {
          "internalType": "contract IBCHost",
          "name": "host",
          "type": "address"
        },
        {
          "internalType": "string",
          "name": "clientId",
          "type": "string"
        },
        {
          "internalType": "uint64",
          "name": "height",
          "type": "uint64"
        },
        {
          "internalType": "string",
          "name": "counterpartyClientIdentifier",
          "type": "string"
        },
        {
          "internalType": "uint64",
          "name": "consensusHeight",
          "type": "uint64"
        },
        {
          "internalType": "bytes",
          "name": "prefix",
          "type": "bytes"
        },
        {
          "internalType": "bytes",
          "name": "proof",
          "type": "bytes"
        },
        {
          "internalType": "bytes",
          "name": "consensusStateBytes",
          "type": "bytes"
        }
      ],
      "name": "verifyClientConsensusState",
      "outputs": [
        {
          "internalType": "bool",
          "name": "",
          "type": "bool"
        }
      ],
      "stateMutability": "view",
      "type": "function",
      "constant": true
    },
    {
      "inputs": [
        {
          "internalType": "contract IBCHost",
          "name": "host",
          "type": "address"
        },
        {
          "internalType": "string",
          "name": "clientId",
          "type": "string"
        },
        {
          "internalType": "uint64",
          "name": "height",
          "type": "uint64"
        },
        {
          "internalType": "bytes",
          "name": "prefix",
          "type": "bytes"
        },
        {
          "internalType": "bytes",
          "name": "proof",
          "type": "bytes"
        },
        {
          "internalType": "string",
          "name": "connectionId",
          "type": "string"
        },
        {
          "internalType": "bytes",
          "name": "connectionBytes",
          "type": "bytes"
        }
      ],
      "name": "verifyConnectionState",
      "outputs": [
        {
          "internalType": "bool",
          "name": "",
          "type": "bool"
        }
      ],
      "stateMutability": "view",
      "type": "function",
      "constant": true
    },
    {
      "inputs": [
        {
          "internalType": "contract IBCHost",
          "name": "host",
          "type": "address"
        },
        {
          "internalType": "string",
          "name": "clientId",
          "type": "string"
        },
        {
          "internalType": "uint64",
          "name": "height",
          "type": "uint64"
        },
        {
          "internalType": "bytes",
          "name": "prefix",
          "type": "bytes"
        },
        {
          "internalType": "bytes",
          "name": "proof",
          "type": "bytes"
        },
        {
          "internalType": "string",
          "name": "portId",
          "type": "string"
        },
        {
          "internalType": "string",
          "name": "channelId",
          "type": "string"
        },
        {
          "internalType": "bytes",
          "name": "channelBytes",
          "type": "bytes"
        }
      ],
      "name": "verifyChannelState",
      "outputs": [
        {
          "internalType": "bool",
          "name": "",
          "type": "bool"
        }
      ],
      "stateMutability": "view",
      "type": "function",
      "constant": true
    },
    {
      "inputs": [
        {
          "internalType": "contract IBCHost",
          "name": "host",
          "type": "address"
        },
        {
          "internalType": "string",
          "name": "clientId",
          "type": "string"
        },
        {
          "internalType": "uint64",
          "name": "height",
          "type": "uint64"
        },
        {
          "internalType": "bytes",
          "name": "prefix",
          "type": "bytes"
        },
        {
          "internalType": "bytes",
          "name": "proof",
          "type": "bytes"
        },
        {
          "internalType": "string",
          "name": "portId",
          "type": "string"
        },
        {
          "internalType": "string",
          "name": "channelId",
          "type": "string"
        },
        {
          "internalType": "uint64",
          "name": "sequence",
          "type": "uint64"
        },
        {
          "internalType": "bytes32",
          "name": "commitmentBytes",
          "type": "bytes32"
        }
      ],
      "name": "verifyPacketCommitment",
      "outputs": [
        {
          "internalType": "bool",
          "name": "",
          "type": "bool"
        }
      ],
      "stateMutability": "view",
      "type": "function",
      "constant": true
    },
    {
      "inputs": [
        {
          "internalType": "contract IBCHost",
          "name": "host",
          "type": "address"
        },
        {
          "internalType": "string",
          "name": "clientId",
          "type": "string"
        },
        {
          "internalType": "uint64",
          "name": "height",
          "type": "uint64"
        },
        {
          "internalType": "bytes",
          "name": "prefix",
          "type": "bytes"
        },
        {
          "internalType": "bytes",
          "name": "proof",
          "type": "bytes"
        },
        {
          "internalType": "string",
          "name": "portId",
          "type": "string"
        },
        {
          "internalType": "string",
          "name": "channelId",
          "type": "string"
        },
        {
          "internalType": "uint64",
          "name": "sequence",
          "type": "uint64"
        },
        {
          "internalType": "bytes",
          "name": "acknowledgement",
          "type": "bytes"
        }
      ],
      "name": "verifyPacketAcknowledgement",
      "outputs": [
        {
          "internalType": "bool",
          "name": "",
          "type": "bool"
        }
      ],
      "stateMutability": "view",
      "type": "function",
      "constant": true
    },
    {
      "inputs": [
        {
          "internalType": "contract IBCHost",
          "name": "host",
          "type": "address"
        },
        {
          "internalType": "string",
          "name": "clientId",
          "type": "string"
        }
      ],
      "name": "getClientState",
      "outputs": [
        {
          "components": [
            {
              "internalType": "string",
              "name": "chain_id",
              "type": "string"
            },
            {
              "components": [
                {
                  "internalType": "uint64",
                  "name": "numerator",
                  "type": "uint64"
                },
                {
                  "internalType": "uint64",
                  "name": "denominator",
                  "type": "uint64"
                }
              ],
              "internalType": "struct Fraction.Data",
              "name": "trust_level",
              "type": "tuple"
            },
            {
              "components": [
                {
                  "internalType": "int64",
                  "name": "Seconds",
                  "type": "int64"
                },
                {
                  "internalType": "int32",
                  "name": "nanos",
                  "type": "int32"
                }
              ],
              "internalType": "struct Duration.Data",
              "name": "trusting_period",
              "type": "tuple"
            },
            {
              "components": [
                {
                  "internalType": "int64",
                  "name": "Seconds",
                  "type": "int64"
                },
                {
                  "internalType": "int32",
                  "name": "nanos",
                  "type": "int32"
                }
              ],
              "internalType": "struct Duration.Data",
              "name": "unbonding_period",
              "type": "tuple"
            },
            {
              "components": [
                {
                  "internalType": "int64",
                  "name": "Seconds",
                  "type": "int64"
                },
                {
                  "internalType": "int32",
                  "name": "nanos",
                  "type": "int32"
                }
              ],
              "internalType": "struct Duration.Data",
              "name": "max_clock_drift",
              "type": "tuple"
            },
            {
              "internalType": "int64",
              "name": "frozen_height",
              "type": "int64"
            },
            {
              "internalType": "int64",
              "name": "latest_height",
              "type": "int64"
            },
            {
              "internalType": "bool",
              "name": "allow_update_after_expiry",
              "type": "bool"
            },
            {
              "internalType": "bool",
              "name": "allow_update_after_misbehaviour",
              "type": "bool"
            }
          ],
          "internalType": "struct ClientState.Data",
          "name": "clientState",
          "type": "tuple"
        },
        {
          "internalType": "bool",
          "name": "found",
          "type": "bool"
        }
      ],
      "stateMutability": "view",
      "type": "function",
      "constant": true
    },
    {
      "inputs": [
        {
          "internalType": "contract IBCHost",
          "name": "host",
          "type": "address"
        },
        {
          "internalType": "string",
          "name": "clientId",
          "type": "string"
        },
        {
          "internalType": "uint64",
          "name": "height",
          "type": "uint64"
        }
      ],
      "name": "getConsensusState",
      "outputs": [
        {
          "components": [
            {
              "components": [
                {
                  "internalType": "int64",
                  "name": "Seconds",
                  "type": "int64"
                },
                {
                  "internalType": "int32",
                  "name": "nanos",
                  "type": "int32"
                }
              ],
              "internalType": "struct Timestamp.Data",
              "name": "timestamp",
              "type": "tuple"
            },
            {
              "components": [
                {
                  "internalType": "bytes",
                  "name": "hash",
                  "type": "bytes"
                }
              ],
              "internalType": "struct MerkleRoot.Data",
              "name": "root",
              "type": "tuple"
            },
            {
              "internalType": "bytes",
              "name": "next_validators_hash",
              "type": "bytes"
            }
          ],
          "internalType": "struct ConsensusState.Data",
          "name": "consensusState",
          "type": "tuple"
        },
        {
          "internalType": "bool",
          "name": "found",
          "type": "bool"
        }
      ],
      "stateMutability": "view",
      "type": "function",
      "constant": true
    }
  ],
  "bytecode": "0x60806040523480156200001157600080fd5b5060405180606001604052806040516020016200002e90620000e0565b6040516020818303038152906040528051906020012081526020016040516020016200005a9062000109565b6040516020818303038152906040528051906020012081526020016040516020016200008690620000b7565b60408051601f1981840301815291815281516020928301209092528251600055820151600155015160025562000132565b7f2f74656e6465726d696e742e74797065732e4c69676874426c6f636b000000008152601c0190565b7f2f74656e6465726d696e742e74797065732e436c69656e7453746174650000008152601d0190565b7f2f74656e6465726d696e742e74797065732e436f6e73656e7375735374617465815260200190565b61784480620001426000396000f3fe608060405234801561001057600080fd5b50600436106100a95760003560e01c8063d112d0b511610071578063d112d0b51461013f578063eb4561fb14610152578063f30fef5214610165578063fe01775014610178578063fe4391fd1461018b578063ff33b3e6146101ad576100a9565b806308795a2d146100ae57806363c0d662146100d75780636455eb57146100ea578063bd90991a146100fd578063d10c838e1461011e575b600080fd5b6100c16100bc3660046167ff565b6101ce565b6040516100ce9190616ceb565b60405180910390f35b6100c16100e5366004616909565b6102fa565b6100c16100f83660046166ed565b610463565b61011061010b3660046165a2565b610592565b6040516100ce92919061775a565b61013161012c3660046165a2565b6105d4565b6040516100ce9291906176f4565b6100c161014d3660046165ff565b610697565b6100c1610160366004616ade565b610767565b6100c1610173366004616a2d565b610827565b6101106101863660046164c1565b6108e6565b61019e61019936600461650d565b610928565b6040516100ce93929190616d09565b6101c06101bb3660046164c1565b610afe565b6040516100ce92919061761f565b60006101d8615f8f565b6101e0615ff3565b60006101ec8d8d610afe565b90935090508061020257600093505050506102ed565b61020e838c8c8c610bbe565b61021e57600093505050506102ed565b6102298d8d8d6105d4565b90925090508061023f57600093505050506102ed565b6102e789610254846020015160000151610c02565b60405163586da2dd60e11b81528d9073__IBCIdentifier_________________________9063b0db45ba90610291908f908f908f90600401616d09565b60206040518083038186803b1580156102a957600080fd5b505af41580156102bd573d6000803e3d6000fd5b505050506040513d601f19601f820116820180604052508101906102e19190616419565b89610c2d565b93505050505b9998505050505050505050565b6000610304615f8f565b61030e8b8b610c39565b905061031c818a8a8a610bbe565b61032a5760009150506102ed565b6104548761034661033c8e8e8e610c80565b6020015151610c02565b6040516331420e7b60e21b81528b9073__IBCIdentifier_________________________9063c50839ec90610383908d908d908d90600401616d09565b60206040518083038186803b15801561039b57600080fd5b505af41580156103af573d6000803e3d6000fd5b505050506040513d601f19601f820116820180604052508101906103d39190616419565b8f6001600160a01b0316638a889658896040518263ffffffff1660e01b81526004016103ff9190616cf6565b60206040518083038186803b15801561041757600080fd5b505afa15801561042b573d6000803e3d6000fd5b505050506040513d601f19601f8201168201806040525081019061044f9190616419565b610c2d565b9b9a5050505050505050505050565b600061046d615f8f565b610475615ff3565b60006104818c8c610afe565b9093509050806104975760009350505050610586565b6104a3838b8b8b610bbe565b6104b35760009350505050610586565b6104be8c8c8c6105d4565b9092509050806104d45760009350505050610586565b610580886104e9846020015160000151610c02565b604051633560a02d60e01b81528c9073__IBCIdentifier_________________________90633560a02d90610524908e908e90600401616d48565b60206040518083038186803b15801561053c57600080fd5b505af4158015610550573d6000803e3d6000fd5b505050506040513d601f19601f820116820180604052508101906105749190616419565b895160208b0120610c2d565b93505050505b98975050505050505050565b60008061059d615ff3565b60006105aa8787876105d4565b91509150806105c25750600092508291506105cc9050565b5051519150600190505b935093915050565b6105dc615ff3565b60006060856001600160a01b031663a37a45c886866040518363ffffffff1660e01b815260040161060e929190616d6d565b60006040518083038186803b15801561062657600080fd5b505afa15801561063a573d6000803e3d6000fd5b505050506040513d6000823e601f3d908101601f191682016040526106629190810190616431565b92509050816106755750600090506105cc565b61068a61068182610cc9565b60200151610cf0565b9660019650945050505050565b60006106a1615f8f565b6106a9615ff3565b60006106b58b8b610afe565b9093509050806106cb576000935050505061075c565b6106d7838a8a8a610bbe565b6106e7576000935050505061075c565b6106f28b8b8b6105d4565b909250905080610708576000935050505061075c565b6107568761071d846020015160000151610c02565b6040516322e26fc960e21b81528b9073__IBCIdentifier_________________________90638b89bf2490610524908d90600401616cf6565b93505050505b979650505050505050565b6000610771615f8f565b610779615ff3565b60006107858c8c610afe565b90935090508061079b5760009350505050610586565b6107a7838b8989610bbe565b6107b75760009350505050610586565b6107c28c8c8c6105d4565b9092509050806107d85760009350505050610586565b610580866107ed846020015160000151610c02565b8973__IBCIdentifier_________________________63ad30116c8e8e6040518363ffffffff1660e01b8152600401610524929190616d6d565b6000610831615f8f565b610839615ff3565b60006108458b8b610afe565b90935090508061085b576000935050505061075c565b610867838a8a89610bbe565b610877576000935050505061075c565b6108828b8b8b6105d4565b909250905080610898576000935050505061075c565b610756866108ad846020015160000151610c02565b6040516305865d8960e51b81528b9073__IBCIdentifier_________________________9063b0cbb12090610524908e90600401616cf6565b6000806108f1615f8f565b60006108fd8686610afe565b91509150806109155750600092508291506109219050565b5060c001519150600190505b9250929050565b6060806000610935616020565b61093d615f8f565b610945615ff3565b61094d615ff3565b6000806109598a610d0d565b9096509150816109845760405162461bcd60e51b815260040161097b906174f8565b60405180910390fd5b85515160400151610998908e908e906105d4565b909350915081156109ea576109bc6109af87610d81565b849063ffffffff610dc116565b156109e6578a6109cb84610e2a565b96515160400151909950959750949550610af4945050505050565b5060015b6109f98d8d88604001516105d4565b909450915081610a1b5760405162461bcd60e51b815260040161097b90616e9a565b610a248b610e81565b909550915081610a465760405162461bcd60e51b815260040161097b90617097565b610a6d85858860405180604001604052804260070b8152602001600060030b815250610ee8565b8015610aa05785515160400151600790810b900b60a0860152610a8f85610ff1565b6109cb610a9b88610d81565b610e2a565b60c085015186515160400151600791820b910b1315610acd5785515160400151600790810b900b60c08601525b610ad685610ff1565b610ae2610a9b88610d81565b8660c001519850985098505050505050505b9450945094915050565b610b06615f8f565b60006060846001600160a01b03166376c81c42856040518263ffffffff1660e01b8152600401610b369190616cf6565b60006040518083038186803b158015610b4e57600080fd5b505afa158015610b62573d6000803e3d6000fd5b505050506040513d6000823e601f3d908101601f19168201604052610b8a9190810190616431565b9250905081610b9d575060009050610921565b610bb2610ba982610cc9565b6020015161103a565b95600195509350505050565b60008360070b8560c0015160070b1215610bda57506000610bfa565b8251610be857506000610bfa565b8151610bf657506000610bfa565b5060015b949350505050565b60008151602014610c255760405162461bcd60e51b815260040161097b9061712b565b506020015190565b60015b95945050505050565b610c41615f8f565b610c49615f8f565b6000610c558585610afe565b9150915080610c765760405162461bcd60e51b815260040161097b906170fb565b5090505b92915050565b610c88615ff3565b610c90615ff3565b6000610c9d8686866105d4565b9150915080610cbe5760405162461bcd60e51b815260040161097b906170c8565b5090505b9392505050565b610cd1616059565b610cd9616059565b610ce66020848551611057565b509150505b919050565b610cf8615ff3565b610d00615ff3565b610ce6602084855161117c565b610d15616020565b6000610d1f616059565b610d2884610cc9565b60025481516040519293509091610d429190602001616c5c565b6040516020818303038152906040528051906020012014610d67575060009050610d7c565b610d7481602001516112a4565b600192509250505b915091565b610d89615ff3565b506040805160608082018352835151015181528151602080820184528451516101400151825282015291515161010001519082015290565b6000610dcc826112c1565b604051602001610ddc9190616c5c565b60405160208183030381529060405280519060200120610dfb846112c1565b604051602001610e0b9190616c5c565b6040516020818303038152906040528051906020012014905092915050565b6060610e34616059565b6040805180820190915260208082527f2f74656e6465726d696e742e74797065732e436f6e73656e7375735374617465908201528152610e73836112c1565b6020820152610cc281611327565b610e89615f8f565b6000610e93616059565b610e9c84610cc9565b60005481516040519293509091610eb69190602001616c5c565b6040516020818303038152906040528051906020012014610edb575060009050610d7c565b610d74816020015161103a565b610ef58360400151610c02565b610f028360600151611384565b14610f1f5760405162461bcd60e51b815260040161097b906172e8565b816040015160070b8260000151600001516040015160070b13610f545760405162461bcd60e51b815260040161097b90616e52565b610f5c616073565b84516020820152604080840151600790810b900b8183015284516060830152840151610100820152610f8c6160f4565b506060830151610f9a61611b565b828152610fa561611b565b508451610fb06160f4565b5060208601516000610fc68a858786868c611396565b905080610fe55760405162461bcd60e51b815260040161097b90617066565b50505050505050505050565b6060610ffb616059565b60408051808201909152601d81527f2f74656e6465726d696e742e74797065732e436c69656e74537461746500000060208201528152610e73836113fe565b611042615f8f565b61104a615f8f565b610ce6602084855161145b565b61105f616059565b6000611069616059565b61107161613b565b6000808089805b89820181101561116a5761108c818c611601565b91965094509250820160018514156110b0576110aa818c898961163c565b01611165565b84600214156110c5576110aa818c89896116a2565b60018460058111156110d357fe5b14156110ed5760006110e5828d6116f0565b929092019150505b60058460058111156110fb57fe5b141561111557600061110d828d61170f565b929092019150505b600084600581111561112357fe5b141561113d576000611135828d611721565b929092019150505b600284600581111561114b57fe5b141561116557600061115d828d611801565b929092019150505b611078565b50949a97995096975050505050505050565b611184615ff3565b600061118e615ff3565b611196616159565b6000808089805b89820181101561116a576111b1818c611601565b91965094509250820160018514156111d5576111cf818c8989611894565b0161129f565b84600214156111ea576111cf818c89896118e2565b84600314156111ff576111cf818c89896118f8565b600184600581111561120d57fe5b141561122757600061121f828d6116f0565b929092019150505b600584600581111561123557fe5b141561124f576000611247828d61170f565b929092019150505b600084600581111561125d57fe5b141561127757600061126f828d611721565b929092019150505b600284600581111561128557fe5b141561129f576000611297828d611801565b929092019150505b61119d565b6112ac616020565b6112b4616020565b610ce66020848551611946565b6060806112cd83611a83565b6001600160401b03811180156112e257600080fd5b506040519080825280601f01601f19166020018201604052801561130d576020820181803683370190505b509050600061131e84602084611ad2565b82525092915050565b60608061133383611b41565b6001600160401b038111801561134857600080fd5b506040519080825280601f01601f191660200182016040528015611373576020820181803683370190505b509050600061131e84602084611b67565b80518051600091610c7a918390611baa565b600085600001516040015160010160070b84600001516040015160070b146113db576113d4868686868b60400151878d608001518e60200151611c45565b90506113f4565b6113f18685858a60400151868c60800151611d0d565b90505b9695505050505050565b60608061140a83611de9565b6001600160401b038111801561141f57600080fd5b506040519080825280601f01601f19166020018201604052801561144a576020820181803683370190505b509050600061131e84602084611e88565b611463615f8f565b600061146d615f8f565b611475616177565b6000808089805b89820181101561116a57611490818c611601565b91965094509250820160018514156114b4576114ae818c8989611fba565b016115fc565b84600214156114c9576114ae818c8989611fca565b84600314156114de576114ae818c8989611fe0565b84600414156114f3576114ae818c8989611ff6565b8460051415611508576114ae818c898961204a565b846006141561151d576114ae818c8989612097565b8460071415611532576114ae818c89896120e2565b84600a1415611547576114ae818c898961212d565b84600b141561155c576114ae818c8989612175565b600184600581111561156a57fe5b141561158457600061157c828d6116f0565b929092019150505b600584600581111561159257fe5b14156115ac5760006115a4828d61170f565b929092019150505b60008460058111156115ba57fe5b14156115d45760006115cc828d611721565b929092019150505b60028460058111156115e257fe5b14156115fc5760006115f4828d611801565b929092019150505b61147c565b60008060008060006116138787611721565b91509150600082600716600581111561162857fe5b600890930498929750909550909350505050565b60006060600061164c87876121be565b91509150611659856121d0565b1561167357600184815b60200201805190910190526113f4565b81855260008460015b602002015111156113f457600184815b6020020180519190910390529695505050505050565b6000606060006116b287876121d4565b915091506116bf856121d0565b156116ce576001846002611663565b6020850182905260008460025b602002015111156113f457600184600261168c565b600080600080611702868660086121ed565b9097909650945050505050565b600080600080611702868660046121ed565b80519181019160009081908190819060200160805b60808116608014156117f457868803821161177b5762461bcd60e51b6000526020600452600f6024526e6c656e677468206f766572666c6f7760881b60445260536000fd5b875160005b602081106080841660801416156117ed57888a0384116117ca5762461bcd60e51b6000526020600452600f6024526e6c656e677468206f766572666c6f7760881b60445260536000fd5b6001998a019982821a607f8116600788021b979097179695810195935001611780565b5050611736565b5091969095509350505050565b606060008060006118128686611721565b915091506060826001600160401b038111801561182e57600080fd5b506040519080825280601f01601f191660200182016040528015611859576020820181803683370190505b508651909150602001878301840181101561187057fe5b868801830160208301611884828288612243565b5091955050500190509250929050565b600061189e616196565b60006118aa8787612284565b915091506118b7856121d0565b156118c55760018481611663565b81855260008460015b602002015111156113f4576001848161168c565b60006118ec6161ad565b60006116b287876122c6565b60006060600061190887876121d4565b91509150611915856121d0565b15611924576001846003611663565b6040850182905260008460035b602002015111156113f457600184600361168c565b61194e616020565b6000611958616020565b6119606161c0565b6000808089805b89820181101561116a5761197b818c611601565b919650945092508201600185141561199f57611999818c89896122f9565b01611a7e565b84600214156119b457611999818c898961230f565b84600314156119c957611999818c8989612325565b84600414156119de57611999818c8989612370565b60018460058111156119ec57fe5b1415611a065760006119fe828d6116f0565b929092019150505b6005846005811115611a1457fe5b1415611a2e576000611a26828d61170f565b929092019150505b6000846005811115611a3c57fe5b1415611a56576000611a4e828d611721565b929092019150505b6002846005811115611a6457fe5b1415611a7e576000611a76828d611801565b929092019150505b611967565b600080611a9b611a968460000151612386565b6123aa565b60010181019050611ab2611a9684602001516123bd565b60010181019050611ac78360400151516123aa565b016001019050919050565b60008280611ae46001600283876123ce565b8651910190611af49082866123e4565b01611b0260028083876123ce565b81019050611b1586602001518286612492565b01611b246003600283876123ce565b81019050611b378660400151828661250c565b0103949350505050565b600080611b528360000151516123aa565b60010181019050611ac78360200151516123aa565b60008280611b796001600283876123ce565b8651910190611b89908286612556565b01611b9760028083876123ce565b81019050611b378660200151828661250c565b600081611bc057611bb9612563565b9050610cc2565b8160011415611c02576060611bef611bea868681518110611bdd57fe5b60200260200101516125bd565b6125ec565b9050611bfa81612649565b915050610cc2565b6000611c0d836126be565b90506000611c1c868684611baa565b90506000611c2f87848801858803611baa565b9050611c3b8282612714565b9350505050610cc2565b600088600001516040015160010160070b87600001516040015160070b1415611c805760405162461bcd60e51b815260040161097b90617020565b611c9189868663ffffffff61278f16565b15611cae5760405162461bcd60e51b815260040161097b906171f2565b611cbb87878b87876127eb565b611cd3888a60000151602001518960200151856129de565b506000611cff878b60000151602001518a60200151604001518b60000151604001518c60200151612c0a565b9a9950505050505050505050565b600086600001516040015160010160070b86600001516040015160070b14611d475760405162461bcd60e51b815260040161097b90616f25565b611d5887858563ffffffff61278f16565b15611d755760405162461bcd60e51b815260040161097b906171f2565b611d8286868986866127eb565b86516101000151611d9290610c02565b865160e00151611da190610c02565b14611dbe5760405162461bcd60e51b815260040161097b90617223565b6000610586868960000151602001518960200151604001518a60000151604001518b60200151612c0a565b600080611dfa8360000151516123aa565b60010181019050611e11611a968460200151612e50565b60010181019050611e28611a968460400151612386565b60010181019050611e3f611a968460600151612386565b60010181019050611e56611a968460800151612386565b60010181019050611e6a8360a00151612e74565b60010181019050611e7e8360c00151612e74565b0160050192915050565b60008280611e9a6001600283876123ce565b8651910190611eaa908286612556565b01611eb860028083876123ce565b81019050611ecb86602001518286612ea2565b01611eda6003600283876123ce565b81019050611eed866040015182866123e4565b01611efc6004600283876123ce565b81019050611f0f866060015182866123e4565b01611f1e6005600283876123ce565b81019050611f31866080015182866123e4565b01611f406006600083876123ce565b81019050611f538660a001518286612f1c565b01611f626007600083876123ce565b81019050611f758660c001518286612f1c565b01611f84600a600083876123ce565b81019050611f978660e001518286612f33565b01611fa6600b600083876123ce565b81019050611b378661010001518286612f33565b6000606060006118aa87876121be565b6000611fd4616196565b60006116b28787612f53565b6000611fea616196565b60006119088787612f86565b6000612000616196565b600061200c8787612f86565b91509150612019856121d0565b15612028576001846004611663565b6060850182905260008460045b602002015111156113f457600184600461168c565b6000612054616196565b60006120608787612f86565b9150915061206d856121d0565b1561207c576001846005611663565b6080850182905260a0840151156113f457600184600561168c565b60008060006120a68787612fb9565b915091506120b3856121d0565b156120c2576001846006611663565b600782810b900b60a086015260c0840151156113f457600184600661168c565b60008060006120f18787612fb9565b915091506120fe856121d0565b1561210d576001846007611663565b600782810b900b60c086015260e0840151156113f457600184600761168c565b600080600061213c8787612fc9565b91509150612149856121d0565b1561215857600184600a611663565b81151560e0860152610140840151156113f457600184600a61168c565b60008060006121848787612fc9565b91509150612191856121d0565b156121a057600184600b611663565b811515610100860152610160840151156113f457600184600b61168c565b60606000606060006117028686611801565b1590565b606060006121e28484611801565b915091509250929050565b81516000908190819060200186850181101561220557fe5b6000878701975087515b868210156122345780821a826008021b8417935060018901985060018201915061220f565b50919794965093945050505050565b5b60208110612263578251825260209283019290910190601f1901612244565b915181516020939093036101000a6000190180199091169216919091179052565b61228c616196565b600083818061229b8387611721565b9150915080830192506122ac616196565b6122b7848885613000565b50955050019150509250929050565b6122ce6161ad565b60008381806122dd8387611721565b9150915080830192506122ee6161ad565b6122b7848885613113565b600061230361611b565b60006118aa8787613211565b60006123196160f4565b60006116b28787613244565b60008060006123348787612fb9565b91509150612341856121d0565b15612350576001846003611663565b600782810b900b60408601526060840151156113f457600184600361168c565b600061237a6160f4565b600061200c8787613244565b6000806123968360000151612e74565b60010181019050611ac78360200151613277565b60006123b582613297565b909101919050565b600080611ac78360000151516123aa565b60006008850260078516176113f48185856132b4565b6000828060606123f387612386565b6001600160401b038111801561240857600080fd5b506040519080825280601f01601f191660200182016040528015612433576020820181803683370190505b5090506000612441826132f7565b9050600061244e876132f7565b9050600061245e8a6020866132fa565b905061246b81868a6132b4565b8501945061247f8360200186840183612243565b9390930193909303979650505050505050565b6000828060606124a1876123bd565b6001600160401b03811180156124b657600080fd5b506040519080825280601f01601f1916602001820160405280156124e1576020820181803683370190505b50905060006124ef826132f7565b905060006124fc876132f7565b9050600061245e8a60208661333d565b82516000908161251d8286866132b4565b905060008582018501602088015b8483101561254a57805160001a8253600192830192918201910161252b565b50500195945050505050565b6000610bfa84848461250c565b600060606002816040516125779190616c5c565b602060405180830381855afa158015612594573d6000803e3d6000fd5b5050506040513d601f19601f820116820180604052508101906125b79190616419565b91505090565b6125c56161de565b604051806040016040528083602001518152602001836040015160070b8152509050919050565b6060806125f88361335f565b6001600160401b038111801561260d57600080fd5b506040519080825280601f01601f191660200182016040528015612638576020820181803683370190505b509050600061131e84602084613386565b60405160009081906002906126649083908690602001616c2b565b60408051601f198184030181529082905261267e91616c5c565b602060405180830381855afa15801561269b573d6000803e3d6000fd5b5050506040513d601f19601f82011682018060405250810190610cc29190616419565b6000600182116126e05760405162461bcd60e51b815260040161097b9061755f565b600160001983015b600181111561270d57600019810181166127045780915061270d565b600019016126e8565b5092915050565b604051600090600160f81b9060029061273590839087908790602001616c09565b60408051601f198184030181529082905261274f91616c5c565b602060405180830381855afa15801561276c573d6000803e3d6000fd5b5050506040513d601f19601f82011682018060405250810190610bfa9190616419565b6000612799616196565b506040805180820182528451865160609081015151909101600790810b835287519091015160209081015160030b818401528351808501909452855190910b835260009083015290610c3090826133a8565b82516020908101516040516128009201616c5c565b60408051601f198184030181529082905280516020918201208751820151909261282a9201616c5c565b604051602081830303815290604052805190602001201461285d5760405162461bcd60e51b815260040161097b906175e8565b845160400151602086015151600791820b910b1461288d5760405162461bcd60e51b815260040161097b90616ee4565b600061289886613403565b90506128af86602001516040015160000151610c02565b81146128cd5760405162461bcd60e51b815260040161097b90616fb9565b83600001516040015160070b86600001516040015160070b136129025760405162461bcd60e51b815260040161097b9061728b565b835160609081015187519091015161291f9163ffffffff6133a816565b61293b5760405162461bcd60e51b815260040161097b90616d98565b85516060015160408051808201909152835185510160070b8152602084810151868201510160030b908201526129769163ffffffff6133a816565b6129925760405162461bcd60e51b815260040161097b90617380565b845180516000916129a4918390611baa565b9050806129b8886000015160e00151610c02565b146129d55760405162461bcd60e51b815260040161097b906173f4565b50505050505050565b600081602001516001600160401b031660001415612a0e5760405162461bcd60e51b815260040161097b90617528565b8451516000906060906001600160401b0381118015612a2c57600080fd5b50604051908082528060200260200182016040528015612a56578160200160208202803683370190505b509050612a616161f1565b600085600001516001600160401b0316896040015160070b029050600086602001516001600160401b03168281612a9457fe5b04905060005b886060015151811015612bf95788606001518181518110612ab757fe5b6020026020010151935060026003811115612ace57fe5b84516003811115612adb57fe5b14612ae557612bf1565b600080612aff86602001518e61358e90919063ffffffff16565b915091508015612bee57868281518110612b1557fe5b602002602001015115612b3a5760405162461bcd60e51b815260040161097b906174ad565b6001878381518110612b4857fe5b91151560209283029190910190910152612b60616211565b8d51805184908110612b6e57fe5b602002602001015190506060612b858d8f8761362d565b60208301515160608a0151919250906000612ba184848461363d565b905080612bbe5760009d5050505050505050505050505050610bfa565b84604001518d019c50888d60070b1115612be85760019d5050505050505050505050505050610bfa565b50505050505b50505b600101612a9a565b5060009a9950505050505050505050565b60608101515185515160009114612c335760405162461bcd60e51b815260040161097b90617162565b816000015160070b8360070b14612c5c5760405162461bcd60e51b815260040161097b90616e23565b6040820151612c71908563ffffffff6136fb16565b612c8d5760405162461bcd60e51b815260040161097b90617586565b612c95616211565b612c9d6161f1565b6000806003612cab8b6137ed565b60020260070b81612cb857fe5b05905060005b866060015151811015612bf95786606001518181518110612cdb57fe5b6020026020010151935060026003811115612cf257fe5b84516003811115612cff57fe5b14612d0957612e48565b8a51805182908110612d1757fe5b602002602001015194506060612d36612d31898d85613878565b6138ac565b6020870151516060870151919250906000612d5284848461363d565b90506000805160206177ef83398151915284604051612d7191906173c3565b60405180910390a16020890151516040516000805160206177ef83398151915291612d9b91616ff0565b60405180910390a16000805160206177ef8339815191528860600151604051612dc49190617353565b60405180910390a17f52dd9d08c343f72c69027ade2a075f6242dba2eeca3a3c61bfd8d00d32f6bd2081604051612dfb9190617199565b60405180910390a180612e1a5760009950505050505050505050610c30565b8860400151870196508560070b8760070b1315612e435760019950505050505050505050610c30565b505050505b600101612cbe565b600080612e60836000015161396c565b60010181019050611ac7836020015161396c565b6000808260070b1215612e895750600a610ceb565b612e9b826001600160401b0316613297565b9050610ceb565b600082806060612eb187612e50565b6001600160401b0381118015612ec657600080fd5b506040519080825280601f01601f191660200182016040528015612ef1576020820181803683370190505b5090506000612eff826132f7565b90506000612f0c876132f7565b9050600061245e8a602086613980565b600083610c306001600160401b03821685856132b4565b60008315612f4757611bb9600184846132b4565b611bb9600084846132b4565b612f5b616196565b6000838180612f6a8387611721565b915091508083019250612f7b616196565b6122b78488856139c3565b612f8e616196565b6000838180612f9d8387611721565b915091508083019250612fae616196565b6122b7848885613ad6565b6000806000806117028686611721565b600080600080612fd98686611721565b915091508160001415612ff3576000935091506109219050565b6001969095509350505050565b613008616196565b6000613012616196565b61301a61613b565b6000808089805b89820181101561116a57613035818c611601565b919650945092508201600185141561305957613053818c8989613be9565b0161310e565b846002141561306e57613053818c8989613c26565b600184600581111561307c57fe5b141561309657600061308e828d6116f0565b929092019150505b60058460058111156130a457fe5b14156130be5760006130b6828d61170f565b929092019150505b60008460058111156130cc57fe5b14156130e65760006130de828d611721565b929092019150505b60028460058111156130f457fe5b141561310e576000613106828d611801565b929092019150505b613021565b61311b6161ad565b60006131256161ad565b61312d61623f565b6000808089805b89820181101561116a57613148818c611601565b919650945092508201600185141561316c57613166818c8989613c67565b0161320c565b600184600581111561317a57fe5b141561319457600061318c828d6116f0565b929092019150505b60058460058111156131a257fe5b14156131bc5760006131b4828d61170f565b929092019150505b60008460058111156131ca57fe5b14156131e45760006131dc828d611721565b929092019150505b60028460058111156131f257fe5b141561320c576000613204828d611801565b929092019150505b613134565b61321961611b565b60008381806132288387611721565b91509150808301925061323961611b565b6122b7848885613c77565b61324c6160f4565b600083818061325b8387611721565b91509150808301925061326c6160f4565b6122b7848885613d8a565b6000808260030b121561328c5750600a610ceb565b612e9b8263ffffffff165b60071c600060015b8215610c7a5760079290921c9160010161329f565b600080828401607f86165b600787901c156132e7578060801782535060079590951c9460019182019101607f86166132bf565b8082535050600101949350505050565b90565b6000828061330b60018483876123ce565b865191019061331b908286612f1c565b0161332a6002600083876123ce565b81019050611b3786602001518286612f1c565b6000828061334f6001600283876123ce565b8651910190611b3790828661250c565b600080613372611a968460000151614029565b60010181019050611ac78360200151612e74565b600082806133986001600283876123ce565b865191019061331b90828661404f565b6000816000015160070b836000015160070b13156133c857506001610c7a565b81518351600791820b910b1480156133ed5750816020015160030b836020015160030b135b156133fa57506001610c7a565b50600092915050565b805160e00151516000906134295760405162461bcd60e51b815260040161097b90616dec565b815151606090613438906140c9565b9050606061344d846000015160600151614126565b90506060613462856000015160800151614183565b905061346c61625d565b604051806101c0016040528085815260200161348f8860000151602001516141e0565b81526020016134a588600001516040015161426c565b81526020018481526020018381526020016134c7886000015160a001516142ee565b81526020016134dd886000015160c001516142ee565b81526020016134f3886000015160e001516142ee565b815260200161350a886000015161010001516142ee565b8152602001613521886000015161012001516142ee565b8152602001613538886000015161014001516142ee565b815260200161354f886000015161016001516142ee565b8152602001613566886000015161018001516142ee565b815260200161357d88600001516101a001516142ee565b905290506113f4816000600e61436e565b60008060005b84515181101561362057836040516020016135af9190616c5c565b60405160208183030381529060405280519060200120856000015182815181106135d557fe5b6020026020010151600001516040516020016135f19190616c5c565b60405160208183030381529060405280519060200120141561361857915060019050610921565b600101613594565b5060009485945092505050565b6060610bfa612d31858585613878565b600081516040146136605760405162461bcd60e51b815260040161097b906171c2565b82516020146136815760405162461bcd60e51b815260040161097b906175bb565b606083838660405160200161369893929190616ca6565b60405160208183030381529060405290506000600160001b905060208183516020850160f35afa8080156136ce579151916136ef565b7819590c8d4d4c4e481c1c9958dbdb5c1a5b194819985a5b1959603a1b6000fd5b50501595945050505050565b805160405160009161370f91602001616c5c565b60408051601f19818403018152908290528051602091820120855190926137369201616c5c565b604051602081830303815290604052805190602001201461375957506000610c7a565b60208083015151908401515163ffffffff90811691161461377c57506000610c7a565b6020808301518101516040516137929201616c5c565b604051602081830303815290604052805190602001208360200151602001516040516020016137c19190616c5c565b60405160208183030381529060405280519060200120146137e457506000610c7a565b50600192915050565b6000816040015160070b600014156138705760006001603e1b6001603b1b825b85515181101561386057855180518290811061382557fe5b60200260200101516040015160070b84019350818411156138585760405162461bcd60e51b815260040161097b90616f67565b60010161380d565b505050600790810b900b60408301525b506040015190565b6060613882616285565b613892858463ffffffff6143cc16565b9050610c306138a7828663ffffffff61446616565b6144d2565b60606001600160401b0380168251106138d75760405162461bcd60e51b815260040161097b90617467565b815160006138e48261396c565b90506060816001600160401b03811180156138fe57600080fd5b506040519080825280601f01601f191660200182016040528015613929576020820181803683370190505b509050600061393a8460208461452f565b90508082528186604051602001613952929190616c78565b604051602081830303815290604052945050505050919050565b6000610c7a826001600160401b0316613297565b6000828061399160018483876123ce565b86519101906139a190828661452f565b016139b06002600083876123ce565b81019050611b378660200151828661452f565b6139cb616196565b60006139d5616196565b6139dd61613b565b6000808089805b89820181101561116a576139f8818c611601565b9196509450925082016001851415613a1c57613a16818c8989614545565b01613ad1565b8460021415613a3157613a16818c8989614585565b6001846005811115613a3f57fe5b1415613a59576000613a51828d6116f0565b929092019150505b6005846005811115613a6757fe5b1415613a81576000613a79828d61170f565b929092019150505b6000846005811115613a8f57fe5b1415613aa9576000613aa1828d611721565b929092019150505b6002846005811115613ab757fe5b1415613ad1576000613ac9828d611801565b929092019150505b6139e4565b613ade616196565b6000613ae8616196565b613af061613b565b6000808089805b89820181101561116a57613b0b818c611601565b9196509450925082016001851415613b2f57613b29818c8989613be9565b01613be4565b8460021415613b4457613b29818c8989613c26565b6001846005811115613b5257fe5b1415613b6c576000613b64828d6116f0565b929092019150505b6005846005811115613b7a57fe5b1415613b94576000613b8c828d61170f565b929092019150505b6000846005811115613ba257fe5b1415613bbc576000613bb4828d611721565b929092019150505b6002846005811115613bca57fe5b1415613be4576000613bdc828d611801565b929092019150505b613af7565b6000806000613bf88787612fb9565b91509150613c05856121d0565b15613c135760018481611663565b600782810b900b8552600084600161167c565b6000806000613c358787612fb9565b91509150613c42856121d0565b15613c51576001846002611663565b600382810b900b602086015260008460026116db565b6000606060006118aa87876121d4565b613c7f61611b565b6000613c8961611b565b613c9161613b565b6000808089805b89820181101561116a57613cac818c611601565b9196509450925082016001851415613cd057613cca818c89896145c9565b01613d85565b8460021415613ce557613cca818c89896145df565b6001846005811115613cf357fe5b1415613d0d576000613d05828d6116f0565b929092019150505b6005846005811115613d1b57fe5b1415613d35576000613d2d828d61170f565b929092019150505b6000846005811115613d4357fe5b1415613d5d576000613d55828d611721565b929092019150505b6002846005811115613d6b57fe5b1415613d85576000613d7d828d611801565b929092019150505b613c98565b613d926160f4565b6000613d9c6160f4565b613da4616159565b6000808089805b898201811015613eb957613dbf818c611601565b9196509450925082016001851415613dea57613de4818c613dde6145f5565b89614603565b01613eb4565b8460021415613dff57613de4818c8989614660565b8460031415613e1457613de4818c8989614676565b6001846005811115613e2257fe5b1415613e3c576000613e34828d6116f0565b929092019150505b6005846005811115613e4a57fe5b1415613e64576000613e5c828d61170f565b929092019150505b6000846005811115613e7257fe5b1415613e8c576000613e84828d611721565b929092019150505b6002846005811115613e9a57fe5b1415613eb4576000613eac828d611801565b929092019150505b613dab565b50602085015181906001600160401b0381118015613ed657600080fd5b50604051908082528060200260200182016040528015613f1057816020015b613efd616211565b815260200190600190039081613ef55790505b5087525b89820181101561116a57613f28818c611601565b9196509450925082016001851415613f4c57613f46818c8989614603565b01614024565b8460021415613f6857613f46818c613f626145f5565b89614660565b8460031415613f8457613f46818c613f7e6145f5565b89614676565b6001846005811115613f9257fe5b1415613fac576000613fa4828d6116f0565b929092019150505b6005846005811115613fba57fe5b1415613fd4576000613fcc828d61170f565b929092019150505b6000846005811115613fe257fe5b1415613ffc576000613ff4828d611721565b929092019150505b600284600581111561400a57fe5b141561402457600061401c828d611801565b929092019150505b613f14565b60008061403a8360000151516123aa565b60010181019050611ab28360200151516123aa565b60008280606061405e87614029565b6001600160401b038111801561407357600080fd5b506040519080825280601f01601f19166020018201604052801561409e576020820181803683370190505b50905060006140ac826132f7565b905060006140b9876132f7565b9050600061245e8a6020866146b7565b6060806140d583612e50565b6001600160401b03811180156140ea57600080fd5b506040519080825280601f01601f191660200182016040528015614115576020820181803683370190505b509050600061131e8460208461472b565b60608061413283612386565b6001600160401b038111801561414757600080fd5b506040519080825280601f01601f191660200182016040528015614172576020820181803683370190505b509050600061131e846020846132fa565b60608061418f83614783565b6001600160401b03811180156141a457600080fd5b506040519080825280601f01601f1916602001820160405280156141cf576020820181803683370190505b509050600061131e846020846147ab565b606060006141ee83516123aa565b60010190506060816001600160401b038111801561420b57600080fd5b506040519080825280601f01601f191660200182016040528015614236576020820181803683370190505b508451909150602090819015614262576142546001600283866123ce565b01614260868285612556565b015b0381529392505050565b6060600061427983612e74565b60010190506060816001600160401b038111801561429657600080fd5b506040519080825280601f01601f1916602001820160405280156142c1576020820181803683370190505b5090506020806000600787900b1315614262576142e26001600083866123ce565b01614260868285612f1c565b606060006142fc83516123aa565b60010190506060816001600160401b038111801561431957600080fd5b506040519080825280601f01601f191660200182016040528015614344576020820181803683370190505b508451909150602090819015614262576143626001600283866123ce565b0161426086828561250c565b60008161437d57611bb9612563565b816001141561439f57611bb98484600e811061439557fe5b6020020151612649565b60006143aa836126be565b905060006143b986868461436e565b90506000611c2f8784880185880361436e565b6143d4616285565b6143dc6161f1565b836060015183815181106143ec57fe5b602002602001015190506040518061010001604052806002600381111561440f57fe5b8152602001856000015160070b8152602001856020015160030b81526020018560400151815260200182604001518152602001826020015181526020018460030b8152602001826060015181525091505092915050565b61446e6162d5565b6040518060c001604052808460000151600381111561448957fe5b8152602001846020015160070b8152602001846040015160030b60070b81526020016144b885606001516147fa565b815260808501516020820152604001839052905092915050565b6060806144de83614837565b6001600160401b03811180156144f357600080fd5b506040519080825280601f01601f19166020018201604052801561451e576020820181803683370190505b509050600061131e84602084614893565b6000610bfa846001600160401b031684846132b4565b60008060006145548787612fb9565b91509150614561856121d0565b1561456f5760018481611663565b6001600160401b0382168552600084600161167c565b60008060006145948787612fb9565b915091506145a1856121d0565b156145b0576001846002611663565b6001600160401b038216602086015260008460026116db565b60006145d3616073565b600061164c878761499d565b60006145e961630b565b60006116b287876149d0565b6145fd6160f4565b50600090565b600061460d616211565b60006146198787614a03565b91509150614626856121d0565b156146345760018481611663565b845160208501518151849291810390811061464b57fe5b602090810291909101015260008460016118ce565b600061466a616211565b60006116b28787614a03565b60008060006146858787612fb9565b91509150614692856121d0565b156146a1576001846003611663565b600782810b900b60408601526000846003611931565b600082806146c96001600283876123ce565b86519101906146d990828661250c565b60208701515191019015614709576146f460028083876123ce565b810190506147078660200151828661250c565b015b6040860151511561472257611b246003600283876123ce565b03949350505050565b8251600090839081906001600160401b031615614762576147506001600083876123ce565b865191019061476090828661452f565b015b60208601516001600160401b031615614722576139b06002600083876123ce565b6000806147948360000151516123aa565b60010181019050611ac7611a968460200151614a36565b82515160009083908190156147da576147c86001600283876123ce565b86519101906147d890828661250c565b015b6147e760028083876123ce565b81019050611b3786602001518286614a46565b614802616326565b50604080518082018252825181528151808301909252602092830180515163ffffffff16835251830151838301529182015290565b60008061484f61484a8460000151614ac0565b612e74565b606084015191016013019061486790611a9690614783565b6001018101905061487e611a968460800151612386565b60010181019050611ac78360a00151516123aa565b600082806148a460018483876123ce565b86519101906000906148b590614ac0565b90506148c2818387614b31565b820191506148d46002600184886123ce565b820191506148e787602001518387614b3e565b820191506000876040015160070b1315614921576149096003600184886123ce565b8201915061491c87604001518387614b3e565b820191505b61492f6004600284886123ce565b8201915061494287606001518387614b57565b820191506149546005600284886123ce565b82019150614967876080015183876123e4565b820191506149796006600284886123ce565b8201915061498c8760a001518387612556565b909101919091039150509392505050565b6149a5616073565b60008381806149b48387611721565b9150915080830192506149c5616073565b6122b7848885614bd1565b6149d861630b565b60008381806149e78387611721565b9150915080830192506149f861630b565b6122b7848885614de0565b614a0b616211565b6000838180614a1a8387611721565b915091508083019250614a2b616211565b6122b78488856150b3565b600080611b5283600001516151f0565b600082806060614a5587614a36565b6001600160401b0381118015614a6a57600080fd5b506040519080825280601f01601f191660200182016040528015614a95576020820181803683370190505b5090506000614aa3826132f7565b90506000614ab0876132f7565b9050600061245e8a602086615201565b600080826003811115614acf57fe5b1415614add57506000610ceb565b6001826003811115614aeb57fe5b1415614af957506001610ceb565b6002826003811115614b0757fe5b1415614b1557506002610ceb565b6003826003811115614b2357fe5b14156100a957506020610ceb565b6000610bfa848484612f1c565b600083610c306001600160401b0382168585600861524d565b600082806060614b6687614783565b6001600160401b0381118015614b7b57600080fd5b506040519080825280601f01601f191660200182016040528015614ba6576020820181803683370190505b5090506000614bb4826132f7565b90506000614bc1876132f7565b9050600061245e8a60208661527e565b614bd9616073565b6000614be3616073565b614beb616340565b6000808089805b89820181101561116a57614c06818c611601565b9196509450925082016001851415614c2a57614c24818c89896152c1565b01614ddb565b8460021415614c3f57614c24818c89896152d7565b8460031415614c5457614c24818c8989612325565b8460041415614c6957614c24818c89896152e7565b8460051415614c7e57614c24818c89896152fd565b8460061415614c9357614c24818c8989615313565b8460071415614ca857614c24818c898961535a565b8460081415614cbd57614c24818c89896153a1565b8460091415614cd257614c24818c89896153e9565b84600a1415614ce757614c24818c8989615432565b84600b1415614cfc57614c24818c898961547b565b84600c1415614d1157614c24818c89896154c4565b84600d1415614d2657614c24818c898961550d565b84600e1415614d3b57614c24818c8989615556565b6001846005811115614d4957fe5b1415614d63576000614d5b828d6116f0565b929092019150505b6005846005811115614d7157fe5b1415614d8b576000614d83828d61170f565b929092019150505b6000846005811115614d9957fe5b1415614db3576000614dab828d611721565b929092019150505b6002846005811115614dc157fe5b1415614ddb576000614dd3828d611801565b929092019150505b614bf2565b614de861630b565b6000614df261630b565b614dfa6161c0565b6000808089805b898201811015614f2457614e15818c611601565b9196509450925082016001851415614e3957614e33818c898961559f565b01614f1f565b8460021415614e4e57614e33818c8989613c26565b8460031415614e6357614e33818c89896155dc565b8460041415614e7f57614e33818c614e7961561f565b89615627565b6001846005811115614e8d57fe5b1415614ea7576000614e9f828d6116f0565b929092019150505b6005846005811115614eb557fe5b1415614ecf576000614ec7828d61170f565b929092019150505b6000846005811115614edd57fe5b1415614ef7576000614eef828d611721565b929092019150505b6002846005811115614f0557fe5b1415614f1f576000614f17828d611801565b929092019150505b614e01565b50608085015181906001600160401b0381118015614f4157600080fd5b50604051908082528060200260200182016040528015614f7b57816020015b614f686161f1565b815260200190600190039081614f605790505b5060608801525b89820181101561116a57614f96818c611601565b9196509450925082016001851415614fc157614fbb818c614fb561561f565b8961559f565b016150ae565b8460021415614fdd57614fbb818c614fd761561f565b89613c26565b8460031415614ff957614fbb818c614ff361561f565b896155dc565b846004141561500e57614fbb818c8989615627565b600184600581111561501c57fe5b141561503657600061502e828d6116f0565b929092019150505b600584600581111561504457fe5b141561505e576000615056828d61170f565b929092019150505b600084600581111561506c57fe5b141561508657600061507e828d611721565b929092019150505b600284600581111561509457fe5b14156150ae5760006150a6828d611801565b929092019150505b614f82565b6150bb616211565b60006150c5616211565b6150cd6161c0565b6000808089805b89820181101561116a576150e8818c611601565b919650945092508201600185141561510c57615106818c8989613c67565b016151eb565b846002141561512157615106818c8989615688565b846003141561513657615106818c8989612325565b846004141561514b57615106818c898961569e565b600184600581111561515957fe5b141561517357600061516b828d6116f0565b929092019150505b600584600581111561518157fe5b141561519b576000615193828d61170f565b929092019150505b60008460058111156151a957fe5b14156151c35760006151bb828d611721565b929092019150505b60028460058111156151d157fe5b14156151eb5760006151e3828d611801565b929092019150505b6150d4565b6000610c7a8263ffffffff16613297565b82516000908390819063ffffffff1615615235576152236001600083876123ce565b86519101906152339082866156df565b015b6020860151511561472257611b9760028083876123ce565b60008383018201825b80156152735760018203915086816020031a825360001901615256565b509195945050505050565b600082806152906001600283876123ce565b86519101906152a090828661250c565b016152ae60028083876123ce565b81019050611b37866020015182866156f2565b60006152cb616196565b60006118aa878761576c565b6000606060006116b287876121be565b60006152f1616196565b600061200c8787612284565b6000615307616326565b6000612060878761579f565b60006060600061532387876121d4565b91509150615330856121d0565b1561533f576001846006611663565b60a0850182905260c0840151156113f457600184600661168c565b60006060600061536a87876121d4565b91509150615377856121d0565b15615386576001846007611663565b60c0850182905260e0840151156113f457600184600761168c565b6000606060006153b187876121d4565b915091506153be856121d0565b156153cd576001846008611663565b60e08501829052610100840151156113f457600184600861168c565b6000606060006153f987876121d4565b91509150615406856121d0565b15615415576001846009611663565b6101008501829052610120840151156113f457600184600961168c565b60006060600061544287876121d4565b9150915061544f856121d0565b1561545e57600184600a611663565b6101208501829052610140840151156113f457600184600a61168c565b60006060600061548b87876121d4565b91509150615498856121d0565b156154a757600184600b611663565b6101408501829052610160840151156113f457600184600b61168c565b6000606060006154d487876121d4565b915091506154e1856121d0565b156154f057600184600c611663565b6101608501829052610180840151156113f457600184600c61168c565b60006060600061551d87876121d4565b9150915061552a856121d0565b1561553957600184600d611663565b61018085018290526101a0840151156113f457600184600d61168c565b60006060600061556687876121d4565b91509150615573856121d0565b1561558257600184600e611663565b6101a085018290526101c0840151156113f457600184600e61168c565b60008060006155ae8787612fb9565b915091506155bb856121d0565b156155c95760018481611663565b600782810b900b855260008460016118ce565b60006155e6616326565b60006155f2878761579f565b915091506155ff856121d0565b1561560e576001846003611663565b604085018290526000846003611931565b6145fd61630b565b60006156316161f1565b600061563d87876157d2565b9150915061564a856121d0565b15615659576001846004611663565b606085015160808501518151849291810390811061567357fe5b60209081029190910101526000846004612035565b600061569261635f565b60006116b28787615805565b60008060006156ad8787612fb9565b915091506156ba856121d0565b156156c9576001846004611663565b600782810b900b60608601526000846004612035565b6000610bfa8463ffffffff1684846132b4565b60008280606061570187614a36565b6001600160401b038111801561571657600080fd5b506040519080825280601f01601f191660200182016040528015615741576020820181803683370190505b509050600061574f826132f7565b9050600061575c876132f7565b9050600061245e8a602086615838565b615774616196565b60008381806157838387611721565b915091508083019250615794616196565b6122b7848885615859565b6157a7616326565b60008381806157b68387611721565b9150915080830192506157c7616326565b6122b784888561596c565b6157da6161f1565b60008381806157e98387611721565b9150915080830192506157fa6161f1565b6122b7848885615a7f565b61580d61635f565b600083818061581c8387611721565b91509150808301925061582d61635f565b6122b7848885615bbc565b6000828061584960018483876123ce565b8651910190611b899082866156df565b615861616196565b600061586b616196565b61587361613b565b6000808089805b89820181101561116a5761588e818c611601565b91965094509250820160018514156158b2576158ac818c8989614545565b01615967565b84600214156158c7576158ac818c8989614585565b60018460058111156158d557fe5b14156158ef5760006158e7828d6116f0565b929092019150505b60058460058111156158fd57fe5b141561591757600061590f828d61170f565b929092019150505b600084600581111561592557fe5b141561593f576000615937828d611721565b929092019150505b600284600581111561594d57fe5b141561596757600061595f828d611801565b929092019150505b61587a565b615974616326565b600061597e616326565b61598661613b565b6000808089805b89820181101561116a576159a1818c611601565b91965094509250820160018514156159c5576159bf818c8989615ce4565b01615a7a565b84600214156159da576159bf818c8989615cf4565b60018460058111156159e857fe5b1415615a025760006159fa828d6116f0565b929092019150505b6005846005811115615a1057fe5b1415615a2a576000615a22828d61170f565b929092019150505b6000846005811115615a3857fe5b1415615a52576000615a4a828d611721565b929092019150505b6002846005811115615a6057fe5b1415615a7a576000615a72828d611801565b929092019150505b61598d565b615a876161f1565b6000615a916161f1565b615a996161c0565b6000808089805b89820181101561116a57615ab4818c611601565b9196509450925082016001851415615ad857615ad2818c8989615d0a565b01615bb7565b8460021415615aed57615ad2818c89896116a2565b8460031415615b0257615ad2818c8989615d87565b8460041415615b1757615ad2818c8989615d9d565b6001846005811115615b2557fe5b1415615b3f576000615b37828d6116f0565b929092019150505b6005846005811115615b4d57fe5b1415615b67576000615b5f828d61170f565b929092019150505b6000846005811115615b7557fe5b1415615b8f576000615b87828d611721565b929092019150505b6002846005811115615b9d57fe5b1415615bb7576000615baf828d611801565b929092019150505b615aa0565b615bc461635f565b6000615bce61635f565b615bd6616159565b6000808089805b89820181101561116a57615bf1818c611601565b9196509450925082016001851415615c1557615c0f818c8989613c67565b01615cdf565b8460021415615c2a57615c0f818c89896116a2565b8460031415615c3f57615c0f818c89896118f8565b6001846005811115615c4d57fe5b1415615c67576000615c5f828d6116f0565b929092019150505b6005846005811115615c7557fe5b1415615c8f576000615c87828d61170f565b929092019150505b6000846005811115615c9d57fe5b1415615cb7576000615caf828d611721565b929092019150505b6002846005811115615cc557fe5b1415615cdf576000615cd7828d611801565b929092019150505b615bdd565b60006060600061164c87876121d4565b6000615cfe616380565b60006116b28787615dad565b6000806000615d198787615de0565b915091506000615d2883615ded565b9050615d33866121d0565b15615d48576020850180516001019052615d7c565b85816003811115615d5557fe5b90816003811115615d6257fe5b905250602085015115615d7c576020850180516000190190525b509695505050505050565b6000615d91616196565b60006155f28787612284565b60006060600061200c87876121d4565b615db5616380565b6000838180615dc48387611721565b915091508083019250615dd5616380565b6122b7848885615e3f565b6000806121e28484612fb9565b60008160070b60001415615e0357506000610ceb565b8160070b60011415615e1757506001610ceb565b8160070b60021415615e2b57506002610ceb565b8160070b600314156100a957506003610ceb565b615e47616380565b6000615e51616380565b615e5961613b565b6000808089805b89820181101561116a57615e74818c611601565b9196509450925082016001851415615e9857615e92818c8989615f52565b01615f4d565b8460021415615ead57615e92818c89896116a2565b6001846005811115615ebb57fe5b1415615ed5576000615ecd828d6116f0565b929092019150505b6005846005811115615ee357fe5b1415615efd576000615ef5828d61170f565b929092019150505b6000846005811115615f0b57fe5b1415615f25576000615f1d828d611721565b929092019150505b6002846005811115615f3357fe5b1415615f4d576000615f45828d611801565b929092019150505b615e60565b6000806000615f618787612fb9565b91509150615f6e856121d0565b15615f7c5760018481611663565b63ffffffff82168552600084600161167c565b60405180610120016040528060608152602001615faa616196565b8152602001615fb7616196565b8152602001615fc4616196565b8152602001615fd1616196565b8152600060208201819052604082018190526060820181905260809091015290565b6040518060600160405280616006616196565b81526020016160136161ad565b8152602001606081525090565b604051806080016040528061603361611b565b81526020016160406160f4565b8152600060208201526040016160546160f4565b905290565b604051806040016040528060608152602001606081525090565b604051806101c00160405280616087616196565b815260606020820181905260006040830152016160a2616196565b81526020016160af616326565b81526020016060815260200160608152602001606081526020016060815260200160608152602001606081526020016060815260200160608152602001606081525090565b60405180606001604052806060815260200161610e616211565b8152600060209091015290565b604051806040016040528061612e616073565b815260200161605461630b565b60405180606001604052806003906020820280368337509192915050565b60405180608001604052806004906020820280368337509192915050565b604051806101800160405280600c906020820280368337509192915050565b604080518082019091526000808252602082015290565b6040518060200160405280606081525090565b6040518060a001604052806005906020820280368337509192915050565b604051806040016040528061610e61635f565b604080516080810182526000815260606020820152908101616013616196565b60405180608001604052806060815260200161622b61635f565b815260006020820181905260409091015290565b60405180604001604052806002906020820280368337509192915050565b604051806101c00160405280600e905b606081526020019060019003908161626d5790505090565b604080516101008101909152806000815260006020820181905260408201526060016162af616326565b81526020016162bc616196565b8152606060208201819052600060408301529081015290565b6040805160c08101909152806000815260006020820181905260408201526060016162fe616326565b8152602001616013616196565b60408051608081018252600080825260208201529081016160135b604051806040016040528060608152602001616054616380565b604051806101e00160405280600f906020820280368337509192915050565b60405180606001604052806060815260200160608152602001606081525090565b60408051808201909152600081526060602082015290565b600082601f8301126163a8578081fd5b81356163bb6163b68261779b565b617775565b91508082528360208285010111156163d257600080fd5b8060208401602084013760009082016020015292915050565b80356001600160a01b0381168114610c7a57600080fd5b80356001600160401b0381168114610c7a57600080fd5b60006020828403121561642a578081fd5b5051919050565b60008060408385031215616443578081fd5b82516001600160401b03811115616458578182fd5b80840185601f820112616469578283fd5b805191506164796163b68361779b565b82815286602084840101111561648d578384fd5b61649e8360208301602085016177be565b809450505050602083015180151581146164b6578182fd5b809150509250929050565b600080604083850312156164d3578182fd5b6164dd84846163eb565b915060208301356001600160401b038111156164f7578182fd5b61650385828601616398565b9150509250929050565b60008060008060808587031215616522578182fd5b61652c86866163eb565b935060208501356001600160401b0380821115616547578384fd5b61655388838901616398565b94506040870135915080821115616568578384fd5b61657488838901616398565b93506060870135915080821115616589578283fd5b5061659687828801616398565b91505092959194509250565b6000806000606084860312156165b6578283fd5b6165c085856163eb565b925060208401356001600160401b038111156165da578283fd5b6165e686828701616398565b9250506165f68560408601616402565b90509250925092565b600080600080600080600060e0888a031215616619578283fd5b61662389896163eb565b965060208801356001600160401b038082111561663e578485fd5b61664a8b838c01616398565b97506166598b60408c01616402565b965060608a013591508082111561666e578485fd5b61667a8b838c01616398565b955060808a013591508082111561668f578485fd5b61669b8b838c01616398565b945060a08a01359150808211156166b0578384fd5b6166bc8b838c01616398565b935060c08a01359150808211156166d1578283fd5b506166de8a828b01616398565b91505092959891949750929550565b600080600080600080600080610100898b031215616709578081fd5b6167138a8a6163eb565b975060208901356001600160401b038082111561672e578283fd5b61673a8c838d01616398565b98506167498c60408d01616402565b975060608b013591508082111561675e578283fd5b61676a8c838d01616398565b965060808b013591508082111561677f578283fd5b61678b8c838d01616398565b955060a08b01359150808211156167a0578283fd5b6167ac8c838d01616398565b945060c08b01359150808211156167c1578283fd5b6167cd8c838d01616398565b935060e08b01359150808211156167e2578283fd5b506167ef8b828c01616398565b9150509295985092959890939650565b60008060008060008060008060006101208a8c03121561681d578081fd5b6168278b8b6163eb565b985060208a01356001600160401b0380821115616842578283fd5b61684e8d838e01616398565b995061685d8d60408e01616402565b985060608c0135915080821115616872578283fd5b61687e8d838e01616398565b975060808c0135915080821115616893578283fd5b61689f8d838e01616398565b965060a08c01359150808211156168b4578283fd5b6168c08d838e01616398565b955060c08c01359150808211156168d5578283fd5b506168e28c828d01616398565b9350506168f28b60e08c01616402565b91506101008a013590509295985092959850929598565b60008060008060008060008060006101208a8c031215616927578283fd5b6169318b8b6163eb565b985060208a01356001600160401b038082111561694c578485fd5b6169588d838e01616398565b99506169678d60408e01616402565b985060608c013591508082111561697c578485fd5b6169888d838e01616398565b975060808c013591508082111561699d578485fd5b6169a98d838e01616398565b965060a08c01359150808211156169be578485fd5b6169ca8d838e01616398565b955060c08c01359150808211156169df578485fd5b6169eb8d838e01616398565b94506169fa8d60e08e01616402565b93506101008c0135915080821115616a10578283fd5b50616a1d8c828d01616398565b9150509295985092959850929598565b600080600080600080600060e0888a031215616a47578081fd5b616a5189896163eb565b965060208801356001600160401b0380821115616a6c578283fd5b616a788b838c01616398565b9750616a878b60408c01616402565b965060608a0135915080821115616a9c578283fd5b616aa88b838c01616398565b955060808a0135915080821115616abd578283fd5b616ac98b838c01616398565b945060a08a01359150808211156166b0578283fd5b600080600080600080600080610100898b031215616afa578182fd5b616b048a8a6163eb565b975060208901356001600160401b0380821115616b1f578384fd5b616b2b8c838d01616398565b9850616b3a8c60408d01616402565b975060608b0135915080821115616b4f578384fd5b616b5b8c838d01616398565b9650616b6a8c60808d01616402565b955060a08b0135915080821115616b7f578384fd5b616b8b8c838d01616398565b945060c08b01359150808211156167c1578384fd5b15159052565b60008151808452616bbe8160208601602086016177be565b601f01601f19169290920160200192915050565b60070b9052565b80516001600160401b03908116835260209182015116910152565b805160070b825260209081015160030b910152565b6001600160f81b03199390931683526001830191909152602182015260410190565b6001600160f81b0319831681528151600090616c4e8160018501602087016177be565b919091016001019392505050565b60008251616c6e8184602087016177be565b9190910192915050565b60008351616c8a8184602088016177be565b8351908301616c9d8282602088016177be565b01949350505050565b60008451616cb88184602089016177be565b8451908301616ccb8282602089016177be565b8451918101616cde8382602089016177be565b9091019695505050505050565b901515815260200190565b600060208252610cc26020830184616ba6565b600060608252616d1c6060830186616ba6565b8281036020840152616d2e8186616ba6565b9150506001600160401b0383166040830152949350505050565b600060408252616d5b6040830185616ba6565b8281036020840152610c308185616ba6565b600060408252616d806040830185616ba6565b90506001600160401b03831660208301529392505050565b60208082526034908201527f6578706563746564206e6577206865616465722074696d6520746f206265206160408201527366746572206f6c64206865616465722074696d6560601b606082015260800190565b6020808252601d908201527f76616c696461746f7220686173682063616e277420626520656d707479000000604082015260600190565b6020808252601590820152741a5b9d985b1a590818dbdb5b5a5d081a195a59da1d605a1b604082015260600190565b60208082526028908201527f6865616465722068656967687420e289a420636f6e73656e737573207374617460408201526719481a195a59da1d60c21b606082015260800190565b6020808252602a908201527f636f6e73656e7375735374617465206e6f7420666f756e6420617420747275736040820152691d1959081a195a59da1d60b21b606082015260800190565b60208082526021908201527f68656164657220616e6420636f6d6d697420686569676874206d69736d6174636040820152600d60fb1b606082015260800190565b60208082526022908201527f68656164657273206d7573742062652061646a6163656e7420696e20686569676040820152611a1d60f21b606082015260800190565b60208082526032908201527f746f74616c20766f74696e6720706f7765722073686f756c64206265206775616040820152711c991959081d1bc81b9bdd08195e18d9595960721b606082015260800190565b6020808252601f908201527f636f6d6d6974207369676e73207369676e7320626c6f636b206661696c656400604082015260600190565b60006040825260066040830152657075626b657960d01b606083015260806020830152610cc26080830184616ba6565b60208082526026908201527f68656164657273206d757374206265206e6f6e2061646a6163656e7420696e206040820152651a195a59da1d60d21b606082015260800190565b6020808252601790820152763330b4b632b2103a37903b32b934b33c903432b0b232b960491b604082015260600190565b60208082526017908201527618db1a595b9d081cdd185d19481a5cc81a5b9d985b1a59604a1b604082015260600190565b60208082526019908201527818dbdb9cd95b9cdd5cc81cdd185d19481b9bdd08199bdd5b99603a1b604082015260600190565b60208082526016908201527518db1a595b9d081cdd185d19481b9bdd08199bdd5b9960521b604082015260600190565b6020808252601b908201527f63616e6e6f7420636f6e7665727420696e746f20616464726573730000000000604082015260600190565b6020808252601a908201527f696e76616c696420636f6d6d6d6974207369676e617475726573000000000000604082015260600190565b6040808252600790820152666564323535313960c81b6060820152901515602082015260800190565b6020808252601690820152751cda59d85b9d1d5c99481b195b99dd1a08084f480d8d60521b604082015260600190565b6020808252601790820152761a195859195c8818d85b89dd08189948195e1c1a5c9959604a1b604082015260600190565b60208082526042908201527f6578706563746564206f6c6420686561646572206e6578742076616c6964617460408201527f6f727320746f206d617463682074686f73652066726f6d206e6577206865616460608201526132b960f11b608082015260a00190565b6020808252603f908201527f6578706563746564206e6577206865616465722068656967687420746f20626560408201527f2067726561746572207468616e206f6e65206f66206f6c642068656164657200606082015260800190565b60208082526045908201527f6865616465727320747275737465642076616c696461746f727320646f65732060408201527f6e6f74206861736820746f206c617465737420747275737465642076616c696460608201526461746f727360d81b608082015260a00190565b600060408252600360408301526273696760e81b606083015260806020830152610cc26080830184616ba6565b60208082526023908201527f6e657720686561646572206861732074696d652066726f6d207468652066757460408201526275726560e81b606082015260800190565b60006040825260076040830152666d65737361676560c81b606083015260806020830152610cc26080830184616ba6565b6020808252604d908201527f6578706563746564206e6577206865616465722076616c696461746f7273207460408201527f6f206d617463682074686f73652074686174207765726520737570706c69656460608201526c040c2e840d0cad2ced0e840b0b609b1b608082015260a00190565b60208082526026908201527f6c656e677468206f7574206f6620626f756e6473202875696e7436342065787060408201526565637465642960d01b606082015260800190565b6020808252602b908201527f646f75626c6520766f7465206f662076616c696461746f72206f6e207468652060408201526a1cd85b594818dbdb5b5a5d60aa1b606082015260800190565b6020808252601690820152751b1a59da1d08189b1bd8dac81a5cc81a5b9d985b1a5960521b604082015260600190565b6020808252601f908201527f74727573744c6576656c20686173207a65726f2044656e6f6d696e61746f7200604082015260600190565b6020808252600d908201526c1a5b9d985b1a59081a5b9c1d5d609a1b604082015260600190565b6020808252818101527f696e76616c696420636f6d6d6974202d2d2077726f6e6720626c6f636b204944604082015260600190565b602080825260139082015272383ab135b2bc903632b733ba3410109e90199960691b604082015260600190565b6020808252601f908201527f6865616465722062656c6f6e677320746f20616e6f7468657220636861696e00604082015260600190565b60006040825283516101a080604085015261763e6101e0850183616ba6565b602087015192506176526060860184616bd9565b6040870151925061766660a0860184616bf4565b6060870151925061767a60e0860184616bf4565b6080870151925061768f610120860184616bf4565b60a087015192506176a4610160860184616bd2565b60c087015192506176b9610180860184616bd2565b60e087015192506176cc82860184616ba0565b61010087015192506176e26101c0860184616ba0565b9250610cc29150506020830184616ba0565b600060408252617708604083018551616bf4565b60208401516080808401528051602060c085015261772960e0850182616ba6565b9150506040850151603f198483030160a08501526177478282616ba6565b9250505082151560208301529392505050565b6001600160401b039290921682521515602082015260400190565b6040518181016001600160401b038111828210171561779357600080fd5b604052919050565b60006001600160401b038211156177b0578081fd5b50601f01601f191660200190565b60005b838110156177d95781810151838201526020016177c1565b838111156177e8576000848401525b5050505056fe381e6feca73f11fec6ca464f9d2a06ae1bb0ee33a55355e128d2d3aca53cc5f4a264697066735822122090bf6c884b30be6403149fb7d0a8b22d7993b17e9d0ad4b374583954ff70c8ec64736f6c63430006080033",
  "immutableReferences": {},
  "source": "pragma solidity ^0.6.8;\npragma experimental ABIEncoderV2;\n\nimport \"./IClient.sol\";\nimport \"./IBCHost.sol\";\nimport \"./IBCMsgs.sol\";\nimport {\n    TmHeader as LightBlock,\n    ClientState,\n    ConsensusState,\n    SignedHeader,\n    LightHeader,\n    ValidatorSet,\n    BlockID,\n    Commit,\n    Validator,\n    CommitSig,\n    Vote,\n    TENDERMINT_LIGHT_PROTO_GLOBAL_ENUMS,\n    CanonicalVote,\n    CanonicalBlockID,\n    CanonicalPartSetHeader,\n    Timestamp,\n    MerkleRoot,\n    SimpleValidator,\n    Consensus,\n\tFraction,\n\tDuration\n} from \"./types/tendermint_light.sol\";\nimport {GoogleProtobufAny as Any} from \"./types/GoogleProtobufAny.sol\";\nimport \"../lib/Bytes.sol\";\nimport \"../lib/proto.sol\";\nimport \"../lib/crypto.sol\";\nimport \"../lib/tendermint.sol\";\nimport \"./IBCIdentifier.sol\";\n\n// TODO: look and handle possible overflows\n// NOTE:  SimpleValidator encode must be > 0 encode (both secp256k1, sr25519)\n// NOTE:  PubKey encode must be > 0 encode (both secp256k1, sr25519)\n// NOTE:  CanonicalVote round encode must be > 0 encode\n// NOTE:  Consensus both fields must be > 0\n// NOTE:  BlockID both fields must be > 0\n// NOTE:  PartSetHeader both fields must be > 0\n\ncontract TendermintClient is IClient {\n    using Bytes for bytes;\n    using tendermint for Vote.Data;\n    using tendermint for Timestamp.Data;\n    using tendermint for BlockID.Data;\n    using tendermint for SignedHeader.Data;\n    using tendermint for LightBlock.Data;\n    using tendermint for ValidatorSet.Data;\n    using tendermint for Commit.Data;\n    using tendermint for ConsensusState.Data;\n\n    // TODO: remove once stabilized code (used for debugging)\n    event Log(string text, bytes data);\n    event Log(string text, Vote.Data);\n    event Log(string text, bool);\n    event Log(string text, int64);\n    event Log(string text, uint);\n    event Log(string text, uint32);\n    event Log(string text, uint64);\n    event Log(string text, bytes32);\n    event Log(string text);\n\n    struct protoTypes {\n        bytes32 clientState;\n        bytes32 consensusState;\n        bytes32 light_block;\n    }\n\n    protoTypes pts;\n\n    constructor() public {\n        // TODO The typeUrl should be defined in types/IBFT2Client.sol\n        // The schema of typeUrl follows cosmos/cosmos-sdk/codec/types/any.go\n        pts = protoTypes({\n            clientState: keccak256(abi.encodePacked(\"/tendermint.types.ClientState\")),\n            consensusState: keccak256(abi.encodePacked(\"/tendermint.types.ConsensusState\")),\n            light_block: keccak256(abi.encodePacked(\"/tendermint.types.LightBlock\"))\n        });\n    }\n\n    /**\n     * @dev getTimestampAtHeight returns the timestamp of the consensus state at the given height.\n     */\n    function getTimestampAtHeight(\n        IBCHost host,\n        string memory clientId,\n        uint64 height\n    ) public override view returns (uint64, bool) {\n        (ConsensusState.Data memory consensusState, bool found) = getConsensusState(host, clientId, height);\n        if (!found) {\n            return (0, false);\n        }\n        return (uint64(consensusState.timestamp.Seconds), true); // TODO (added seconds)\n    }\n\n    function getLatestHeight(\n        IBCHost host,\n        string memory clientId\n    ) public override view returns (uint64, bool) {\n        (ClientState.Data memory clientState, bool found) = getClientState(host, clientId);\n        if (!found) {\n            return (0, false);\n        }\n        return (uint64(clientState.latest_height), true);\n    }\n\n    /**\n     * @dev checkHeaderAndUpdateState checks if the provided header is valid\n     */\n    function checkHeaderAndUpdateState(\n        IBCHost host,\n        string memory clientId, \n        bytes memory clientStateBytes,\n        bytes memory headerBytes\n    ) public override returns (bytes memory newClientStateBytes, bytes memory newConsensusStateBytes, uint64 height) {\n        LightBlock.Data memory lightBlock;\n        ClientState.Data memory clientState;\n        ConsensusState.Data memory trustedConsensusState;\n        ConsensusState.Data memory prevConsState;\n        bool ok;\n        bool conflictingHeader;\n\n        (lightBlock, ok) = unmarshalLightBlock(headerBytes);\n        require(ok, \"light block is invalid\");\n\n        // Check if the Client store already has a consensus state for the header's height\n        // If the consensus state exists, and it matches the header then we return early\n        // since header has already been submitted in a previous UpdateClient.\n\t    (prevConsState, ok) = getConsensusState(host, clientId, uint64(lightBlock.signed_header.header.height));\n\t    if (ok) {\n\t    \t// This header has already been submitted and the necessary state is already stored\n\t    \t// in client store, thus we can return early without further validation.\n            if (prevConsState.isEqual(lightBlock.toConsensusState())) {\n\t\t\t\treturn (clientStateBytes, marshalConsensusState(prevConsState), uint64(lightBlock.signed_header.header.height));\n            }\n\t    \t// A consensus state already exists for this height, but it does not match the provided header.\n\t    \t// Thus, we must check that this header is valid, and if so we will freeze the client.\n\t    \tconflictingHeader = true;\n\t    }\n        \n        (trustedConsensusState, ok) = getConsensusState(host, clientId, uint64(lightBlock.trusted_height));\n        require(ok, \"consensusState not found at trusted height\");\n\n        (clientState, ok) = unmarshalClientState(clientStateBytes);\n        require(ok, \"client state is invalid\");\n\n        checkValidity(clientState, trustedConsensusState, lightBlock, Duration.Data({Seconds: int64(now), nanos: 0})); // TODO: unsafe downcast to int64\n\n\t    // Header is different from existing consensus state and also valid, so freeze the client and return\n\t    if (conflictingHeader) {\n            clientState.frozen_height = lightBlock.signed_header.header.height;\n\t    \treturn (\n                marshalClientState(clientState),\n                marshalConsensusState(lightBlock.toConsensusState()),\n                uint64(lightBlock.signed_header.header.height)\n            );\n\t    }\n\n        // TODO: check consensus state monotonicity\n\n        // update the consensus state from a new header and set processed time metadata\n        if (lightBlock.signed_header.header.height > clientState.latest_height) {\n            clientState.latest_height = lightBlock.signed_header.header.height;\n        }\n\n        return (marshalClientState(clientState), marshalConsensusState(lightBlock.toConsensusState()), uint64(clientState.latest_height));\n    }\n\n    function marshalClientState(ClientState.Data memory clientState) internal view returns (bytes memory) {\n        Any.Data memory anyClientState;\n        anyClientState.type_url = \"/tendermint.types.ClientState\";\n        anyClientState.value = ClientState.encode(clientState);\n        return Any.encode(anyClientState);\n    }\n\n    function marshalConsensusState(ConsensusState.Data memory consensusState) internal view returns (bytes memory) {\n        Any.Data memory anyConsensusState;\n        anyConsensusState.type_url = \"/tendermint.types.ConsensusState\";\n        anyConsensusState.value = ConsensusState.encode(consensusState);\n        return Any.encode(anyConsensusState);\n    }\n\n    function unmarshalLightBlock(bytes memory bz) internal view returns (LightBlock.Data memory header, bool ok) {\n        Any.Data memory anyHeader = Any.decode(bz);\n        if (keccak256(abi.encodePacked(anyHeader.type_url)) != pts.light_block) {\n            return (header, false);\n        }\n        return (LightBlock.decode(anyHeader.value), true);\n    }\n\n    function unmarshalClientState(bytes memory bz) internal view returns (ClientState.Data memory clientState, bool ok) {\n        Any.Data memory anyClientState = Any.decode(bz);\n        if (keccak256(abi.encodePacked(anyClientState.type_url)) != pts.clientState) {\n            return (clientState, false);\n        }\n        return (ClientState.decode(anyClientState.value), true);\n    }\n\n    function unmarshalConsensusState(bytes memory bz) internal view returns (ConsensusState.Data memory consensusState, bool ok) {\n        Any.Data memory anyConsensusState = Any.decode(bz);\n        if (keccak256(abi.encodePacked(anyConsensusState.type_url)) != pts.consensusState) {\n            return (consensusState, false);\n        }\n        return (ConsensusState.decode(anyConsensusState.value), true);\n    }\n\n    /// State verification functions ///\n\n    function verifyClientState(\n        IBCHost host,\n        string memory clientId,\n        uint64 height,\n        bytes memory prefix,\n        string memory counterpartyClientIdentifier,\n        bytes memory proof,\n        bytes memory clientStateBytes\n    ) public override view returns (bool) {\n        ClientState.Data memory clientState;\n        ConsensusState.Data memory consensusState;\n        bool found;\n\n        (clientState, found) = getClientState(host, clientId);\n        if (!found) {\n            return false;\n        }\n        if (!validateArgs(clientState, height, prefix, proof)) {\n            return false;\n        }\n        (consensusState, found) = getConsensusState(host, clientId, height);\n        if (!found) {\n            return false;\n        }\n        return verifyMembership(proof, consensusState.root.hash.toBytes32(), prefix, IBCIdentifier.clientStateCommitmentSlot(counterpartyClientIdentifier), keccak256(clientStateBytes));\n    }\n\n    function verifyClientConsensusState(\n        IBCHost host,\n        string memory clientId,\n        uint64 height,\n        string memory counterpartyClientIdentifier,\n        uint64 consensusHeight,\n        bytes memory prefix,\n        bytes memory proof,\n        bytes memory consensusStateBytes // serialized with pb\n    ) public override view returns (bool) {\n        ClientState.Data memory clientState;\n        ConsensusState.Data memory consensusState;\n        bool found;\n\n        (clientState, found) = getClientState(host, clientId);\n        if (!found) {\n            return false;\n        }\n        if (!validateArgs(clientState, height, prefix, proof)) {\n            return false;\n        }\n        (consensusState, found) = getConsensusState(host, clientId, height);\n        if (!found) {\n            return false;\n        }\n        return verifyMembership(proof, consensusState.root.hash.toBytes32(), prefix, IBCIdentifier.consensusStateCommitmentSlot(counterpartyClientIdentifier, consensusHeight), keccak256(consensusStateBytes));\n    }\n\n    function verifyConnectionState(\n        IBCHost host,\n        string memory clientId,\n        uint64 height,\n        bytes memory prefix,\n        bytes memory proof,\n        string memory connectionId,\n        bytes memory connectionBytes // serialized with pb\n    ) public override view returns (bool) {\n        ClientState.Data memory clientState;\n        ConsensusState.Data memory consensusState;\n        bool found;\n\n        (clientState, found) = getClientState(host, clientId);\n        if (!found) {\n            return false;\n        }\n        if (!validateArgs(clientState, height, prefix, proof)) {\n            return false;\n        }\n        (consensusState, found) = getConsensusState(host, clientId, height);\n        if (!found) {\n            return false;\n        }\n        return verifyMembership(proof, consensusState.root.hash.toBytes32(), prefix, IBCIdentifier.connectionCommitmentSlot(connectionId), keccak256(connectionBytes));\n    }\n\n    function verifyChannelState(\n        IBCHost host,\n        string memory clientId,\n        uint64 height,\n        bytes memory prefix,\n        bytes memory proof,\n        string memory portId,\n        string memory channelId,\n        bytes memory channelBytes // serialized with pb\n    ) public override view returns (bool) {\n        ClientState.Data memory clientState;\n        ConsensusState.Data memory consensusState;\n        bool found;\n\n        (clientState, found) = getClientState(host, clientId);\n        if (!found) {\n            return false;\n        }\n        if (!validateArgs(clientState, height, prefix, proof)) {\n            return false;\n        }\n        (consensusState, found) = getConsensusState(host, clientId, height);\n        if (!found) {\n            return false;\n        }\n        return verifyMembership(proof, consensusState.root.hash.toBytes32(), prefix, IBCIdentifier.channelCommitmentSlot(portId, channelId), keccak256(channelBytes));\n    }\n\n    function verifyPacketCommitment(\n        IBCHost host,\n        string memory clientId,\n        uint64 height,\n        bytes memory prefix,\n        bytes memory proof,\n        string memory portId,\n        string memory channelId,\n        uint64 sequence,\n        bytes32 commitmentBytes\n    ) public override view returns (bool) {\n        ClientState.Data memory clientState;\n        ConsensusState.Data memory consensusState;\n        bool found;\n\n        (clientState, found) = getClientState(host, clientId);\n        if (!found) {\n            return false;\n        }\n        if (!validateArgs(clientState, height, prefix, proof)) {\n            return false;\n        }\n        (consensusState, found) = getConsensusState(host, clientId, height);\n        if (!found) {\n            return false;\n        }\n        return verifyMembership(proof, consensusState.root.hash.toBytes32(), prefix, IBCIdentifier.packetCommitmentSlot(portId, channelId, sequence), commitmentBytes);\n    }\n\n    function verifyPacketAcknowledgement(\n        IBCHost host,\n        string memory clientId,\n        uint64 height,\n        bytes memory prefix,\n        bytes memory proof,\n        string memory portId,\n        string memory channelId,\n        uint64 sequence,\n        bytes memory acknowledgement\n    ) public override view returns (bool) {\n        ClientState.Data memory clientState = mustGetClientState(host, clientId);\n        if (!validateArgs(clientState, height, prefix, proof)) {\n            return false;\n        }\n        return verifyMembership(proof, mustGetConsensusState(host, clientId, height).root.hash.toBytes32(), prefix, IBCIdentifier.packetAcknowledgementCommitmentSlot(portId, channelId, sequence), host.makePacketAcknowledgementCommitment(acknowledgement));\n    }\n\n    /// tendermint verification functions ///\n\n    // checkValidity checks if the Tendermint header is valid.\n    function checkValidity(\n        ClientState.Data memory clientState,\n        ConsensusState.Data memory trustedConsensusState,\n        LightBlock.Data memory lightBlock,\n        Duration.Data memory currentTime\n    ) internal {\n        // checkTrustedHead\n        // assert that trustedVals is NextValidators of last trusted header\n        // to do this, we check that trustedVals.Hash() == consState.NextValidatorsHash\n        require(\n            lightBlock.trusted_validators.hash() == trustedConsensusState.next_validators_hash.toBytes32(),\n            \"headers trusted validators does not hash to latest trusted validators\"\n        );\n\n\t    // assert header height is newer than consensus state\n        require(\n            lightBlock.signed_header.header.height > lightBlock.trusted_height,\n            \"header height  consensus state height\"\n        );\n\n        // TODO: IsRevisionFormat(chaiID)\n\n        LightHeader.Data memory lc;\n        lc.chain_id = clientState.chain_id;\n        lc.height = lightBlock.trusted_height;\n        lc.time = trustedConsensusState.timestamp;\n        lc.next_validators_hash = trustedConsensusState.next_validators_hash;\n\n        ValidatorSet.Data memory trustedVals = lightBlock.trusted_validators;\n        SignedHeader.Data memory trustedHeader;\n        trustedHeader.header = lc;\n\n        SignedHeader.Data memory untrustedHeader = lightBlock.signed_header;\n        ValidatorSet.Data memory untrustedVals = lightBlock.validator_set;\n\n        bool ok = verify(\n\t\t\tclientState,\n            trustedHeader,\n            trustedVals,\n            untrustedHeader,\n            untrustedVals,\n            currentTime\n        );\n\n        require(ok, \"failed to verify header\");\n    }\n\n    function verify(\n\t\t\tClientState.Data memory clientState,\n            SignedHeader.Data memory trustedHeader,\n            ValidatorSet.Data memory trustedVals,\n            SignedHeader.Data memory untrustedHeader,\n            ValidatorSet.Data memory untrustedVals,\n            Duration.Data memory currentTime\n    ) internal returns (bool) {\n        if (untrustedHeader.header.height != trustedHeader.header.height+1) {\n            return verifyNonAdjacent(\n                trustedHeader,\n                trustedVals,\n                untrustedHeader,\n                untrustedVals,\n            \tclientState.trusting_period,\n                currentTime,\n            \tclientState.max_clock_drift,\n            \tclientState.trust_level\n            );\n        }\n\n        return verifyAdjacent(\n            trustedHeader,\n            untrustedHeader,\n            untrustedVals,\n            clientState.trusting_period,\n            currentTime,\n            clientState.max_clock_drift\n        );\n    }\n\n    function verifyNewHeaderAndVals(\n            SignedHeader.Data memory untrustedHeader,\n            ValidatorSet.Data memory untrustedVals,\n            SignedHeader.Data memory trustedHeader,\n            Duration.Data memory currentTime,\n            Duration.Data memory maxClockDrift\n    ) internal {\n            // SignedHeader validate basic\n            require(keccak256(abi.encodePacked(untrustedHeader.header.chain_id)) == keccak256(abi.encodePacked(trustedHeader.header.chain_id)), \"header belongs to another chain\");\n            require(untrustedHeader.commit.height == untrustedHeader.header.height, \"header and commit height mismatch\");\n\n            bytes32 untrustedHeaderBlockHash = untrustedHeader.hash();\n            require(untrustedHeaderBlockHash == untrustedHeader.commit.block_id.hash.toBytes32(), \"commit signs signs block failed\");\n\n            require(untrustedHeader.header.height > trustedHeader.header.height, \"expected new header height to be greater than one of old header\");\n            require(untrustedHeader.header.time.GT(trustedHeader.header.time), \"expected new header time to be after old header time\");\n            require(Timestamp.Data({\n                Seconds: int64(currentTime.Seconds) + int64(maxClockDrift.Seconds), nanos: int32(currentTime.nanos) + int32(maxClockDrift.nanos)\n            }).GT(untrustedHeader.header.time), \"new header has time from the future\");\n\n            bytes32 validatorsHash = crypto.merkleRootHash(untrustedVals.validators, 0, untrustedVals.validators.length);\n            require(untrustedHeader.header.validators_hash.toBytes32() == validatorsHash, \"expected new header validators to match those that were supplied at height XX\");\n    }\n\n    function verifyAdjacent(\n            SignedHeader.Data memory trustedHeader,\n            SignedHeader.Data memory untrustedHeader,\n            ValidatorSet.Data memory untrustedVals,\n            Duration.Data memory trustingPeriod,\n            Duration.Data memory currentTime,\n            Duration.Data memory maxClockDrift\n    ) internal returns (bool) {\n            require(untrustedHeader.header.height == trustedHeader.header.height+1, \"headers must be adjacent in height\");\n\n            require(!trustedHeader.isExpired(trustingPeriod, currentTime), \"header can't be expired\");\n\n\t        verifyNewHeaderAndVals(\n\t        \tuntrustedHeader,\n                untrustedVals,\n\t        \ttrustedHeader,\n\t        \tcurrentTime,\n                maxClockDrift\n            );\n\n\t        // Check the validator hashes are the same\n            require(untrustedHeader.header.validators_hash.toBytes32() == trustedHeader.header.next_validators_hash.toBytes32(), \"expected old header next validators to match those from new header\");\n\n            // Ensure that +2/3 of new validators signed correctly.\n            //if err := untrustedVals.VerifyCommitLight(trustedHeader.ChainID, untrustedHeader.Commit.BlockID,\n            bool ok = verifyCommitLight(untrustedVals, trustedHeader.header.chain_id, untrustedHeader.commit.block_id, untrustedHeader.header.height, untrustedHeader.commit);\n\n            return ok;\n    }\n\n    function verifyNonAdjacent(\n            SignedHeader.Data memory trustedHeader,\n            ValidatorSet.Data memory trustedVals,\n            SignedHeader.Data memory untrustedHeader,\n            ValidatorSet.Data memory untrustedVals,\n            Duration.Data memory trustingPeriod,\n            Duration.Data memory currentTime,\n            Duration.Data memory maxClockDrift,\n            Fraction.Data memory trustLevel\n    ) internal returns (bool) {\n        require(untrustedHeader.header.height != trustedHeader.header.height+1, \"headers must be non adjacent in height\");\n\n        require(!trustedHeader.isExpired(trustingPeriod, currentTime), \"header can't be expired\");\n\n\t    verifyNewHeaderAndVals(\n\t    \tuntrustedHeader,\n            untrustedVals,\n\t    \ttrustedHeader,\n\t    \tcurrentTime,\n            maxClockDrift\n        );\n\n        // Ensure that +`trustLevel` (default 1/3) or more of last trusted validators signed correctly.\n        verifyCommitLightTrusting(trustedVals, trustedHeader.header.chain_id, untrustedHeader.commit, trustLevel);\n\n        // Ensure that +2/3 of new validators signed correctly.\n        //if err := untrustedVals.VerifyCommitLight(trustedHeader.ChainID, untrustedHeader.Commit.BlockID,\n        bool ok = verifyCommitLight(untrustedVals, trustedHeader.header.chain_id, untrustedHeader.commit.block_id, untrustedHeader.header.height, untrustedHeader.commit);\n\n        return ok;\n    }\n\n    function verifyCommitLightTrusting(\n            ValidatorSet.Data memory trustedVals,\n            string memory chainID,\n            Commit.Data memory commit,\n            Fraction.Data memory trustLevel\n    ) internal returns (bool) {\n        // sanity check\n        require(trustLevel.denominator != 0, \"trustLevel has zero Denominator\");\n\n        int64 talliedVotingPower = 0;\n\t\tbool[] memory seenVals = new bool[](trustedVals.validators.length);\n\n        // TODO: unsafe multiplication?\n        CommitSig.Data memory commitSig;\n        uint256 totalVotingPowerMulByNumerator = uint256(trustedVals.total_voting_power) * uint256(trustLevel.numerator);\n        uint256 votingPowerNeeded = totalVotingPowerMulByNumerator / uint256(trustLevel.denominator);\n\n        for (uint idx = 0; idx < commit.signatures.length; idx++) {\n            commitSig = commit.signatures[idx];\n\n            // no need to verify absent or nil votes.\n            if (commitSig.block_id_flag != TENDERMINT_LIGHT_PROTO_GLOBAL_ENUMS.BlockIDFlag.BLOCK_ID_FLAG_COMMIT) {\n                continue;\n            }\n\n\t\t    // We don't know the validators that committed this block, so we have to\n\t\t    // check for each vote if its validator is already known.\n            // TODO: O(n^2)\n            (uint valIdx, bool found) = trustedVals.getByAddress(commitSig.validator_address);\n            if (found) {\n\t\t\t\t// check for double vote of validator on the same commit\n\t\t\t\trequire(!seenVals[valIdx], \"double vote of validator on the same commit\");\n\t\t\t\tseenVals[valIdx] = true;\n\n                Validator.Data memory val = trustedVals.validators[valIdx];\n\n                // validate signature\n                bytes memory message = voteSignBytesDelim(commit, chainID, idx);\n                bytes memory pubkey = val.pub_key.ed25519;\n                bytes memory sig = commitSig.signature;\n\n\t\t\t\tbool success = crypto.ed25519Verify(message, pubkey, sig);\n\t\t\t\tif (!success) {\n\t\t\t\t\treturn false;\n\t\t\t\t}\n\n                talliedVotingPower += val.voting_power;\n\n                if (uint256(talliedVotingPower) > votingPowerNeeded) {\n                    return true;\n                }\n            }\n        }\n\n        return false;\n    }\n\n    // VerifyCommitLight verifies +2/3 of the set had signed the given commit.\n    //\n    // This method is primarily used by the light client and does not check all the\n    // signatures.\n    function verifyCommitLight(\n        ValidatorSet.Data memory vals,\n        string memory chainID,\n        BlockID.Data memory blockID,\n        int64 height,\n        Commit.Data memory commit\n    ) internal returns (bool) {\n        require(vals.validators.length == commit.signatures.length, \"invalid commmit signatures\");\n\n        require(height == commit.height, \"invalid commit height\");\n\n        require(commit.block_id.isEqual(blockID), \"invalid commit -- wrong block ID\");\n\n        Validator.Data memory val;\n        CommitSig.Data memory commitSig;\n\n        int64 talliedVotingPower = 0;\n        int64 votingPowerNeeded = vals.getTotalVotingPower() * 2 / 3;\n\n        for (uint i = 0; i < commit.signatures.length; i++) {\n            commitSig = commit.signatures[i];\n\n            // no need to verify absent or nil votes.\n            if (commitSig.block_id_flag != TENDERMINT_LIGHT_PROTO_GLOBAL_ENUMS.BlockIDFlag.BLOCK_ID_FLAG_COMMIT) {\n                continue;\n            }\n\n            val = vals.validators[i];\n\n            // validate signature\n            bytes memory message = proto.encodeDelim(voteSignBytes(commit, chainID, i));\n            bytes memory pubkey = val.pub_key.ed25519;\n            bytes memory sig = commitSig.signature;\n\n            bool success = crypto.ed25519Verify(message, pubkey, sig);\n\n            // TODO: debug\n            emit Log(\"message\", message);\n            emit Log(\"pubkey\", val.pub_key.ed25519);\n            emit Log(\"sig\", commitSig.signature);\n            emit Log(\"ed25519\", success);\n\n            if (!success) {\n                return false;\n            }\n\n            talliedVotingPower += val.voting_power;\n\n            if (talliedVotingPower > votingPowerNeeded) {\n                return true;\n            }\n        }\n\n        return false;\n    }\n\n    function voteSignBytes(Commit.Data memory commit, string memory chainID, uint idx) internal view returns (bytes memory) {\n        Vote.Data memory vote;\n        vote = commit.toVote(idx);\n\n        return (CanonicalVote.encode(vote.toCanonicalVote(chainID)));\n    }\n\n\tfunction voteSignBytesDelim(Commit.Data memory commit, string memory chainID, uint idx) internal view returns (bytes memory) {\n\t\treturn proto.encodeDelim(voteSignBytes(commit, chainID, idx));\n\t}\n\n\n    /// helper functions ///\n\n    function getClientState(IBCHost host, string memory clientId) public view returns (ClientState.Data memory clientState, bool found) {\n        bytes memory clientStateBytes;\n        (clientStateBytes, found) = host.getClientState(clientId);\n        if (!found) {\n            return (clientState, false);\n        }\n        return (ClientState.decode(Any.decode(clientStateBytes).value), true);\n    }\n\n    function getConsensusState(IBCHost host, string memory clientId, uint64 height) public view returns (ConsensusState.Data memory consensusState, bool found) {\n        bytes memory consensusStateBytes;\n        (consensusStateBytes, found) = host.getConsensusState(clientId, height);\n        if (!found) {\n            return (consensusState, false);\n        }\n        return (ConsensusState.decode(Any.decode(consensusStateBytes).value), true);\n    }\n\n    function validateArgs(ClientState.Data memory cs, uint64 height, bytes memory prefix, bytes memory proof) internal pure returns (bool) {\n        if (cs.latest_height < int64(height)) {\n            return false;\n        } else if (prefix.length == 0) {\n            return false;\n        } else if (proof.length == 0) {\n            return false;\n        }\n        return true;\n    }\n\n    // NOTE: this is a workaround to avoid the error `Stack too deep` in caller side\n    function mustGetClientState(IBCHost host, string memory clientId) internal view returns (ClientState.Data memory) {\n        (ClientState.Data memory clientState, bool found) = getClientState(host, clientId);\n        require(found, \"client state not found\");\n        return clientState;\n    }\n\n    // NOTE: this is a workaround to avoid the error `Stack too deep` in caller side\n    function mustGetConsensusState(IBCHost host, string memory clientId, uint64 height) internal view returns (ConsensusState.Data memory) {\n        (ConsensusState.Data memory consensusState, bool found) = getConsensusState(host, clientId, height);\n        require(found, \"consensus state not found\");\n        return consensusState;\n    }\n\n    function verifyMembership(\n        bytes memory proof,\n        bytes32 root,\n        bytes memory prefix,\n        bytes32 slot,\n        bytes32 expectedValue\n    ) internal pure returns (bool) {\n        return true;\n    }\n}\n",
  "sourcePath": "/home/giulio/src/github.com/mkaczanowski/yui-ibc-solidity/contracts/core/TendermintClient.sol",
  "compiler": {
    "name": "solc",
    "version": "0.6.8+commit.0bbfe453.Emscripten.clang"
  },
  "schemaVersion": "3.4.3",
  "updatedAt": "2021-10-05T14:01:32.034Z",
  "networkType": "ethereum",
  "devdoc": {
    "methods": {
      "checkHeaderAndUpdateState(address,string,bytes,bytes)": {
        "details": "checkHeaderAndUpdateState checks if the provided header is valid"
      },
      "getTimestampAtHeight(address,string,uint64)": {
        "details": "getTimestampAtHeight returns the timestamp of the consensus state at the given height."
      }
    }
  },
  "userdoc": {
    "methods": {
      "getClientState(address,string)": {
        "notice": "helper functions ///"
      },
      "verifyClientState(address,string,uint64,bytes,string,bytes,bytes)": {
        "notice": "State verification functions ///"
      }
    }
  }
}